:020000040800F2
:1020000000500020C9AF000829B0000829B000081E
:1020100029B0000829B0000829B00008000000001D
:1020200000000000000000000000000029B00008CF
:1020300029B000080000000029B000085FA00008D7
:1020400029B0000829B0000829B0000829B000080C
:1020500029B0000829B00008B9AE0008BFAE0008DA
:10206000C5AE0008CBAE0008D1AE000829B000080C
:1020700029B000082D4B000829B0000829B000083D
:1020800029B0000829B0000829B000083DCD00089B
:1020900031CD000829B0000829B00008D7AE0008EB
:1020A00029B0000875B7000829B0000889B70008F2
:1020B0008DB70008A1B70008B5B7000829B000081F
:1020C00029B0000829B0000829B0000829B000088C
:1020D00029B00008DDAB0008F5AB000811AC000822
:1020E000EDAE000829B0000841CD00080000000056
:1020F00000000000000000000000000000000000E0
:0C21000000000000000000005FF808F183
:10210C00034613F8012B002AFBD1181A013870472B
:10211C0081F0004102E000BF83F0004330B54FEA8C
:10212C0041044FEA430594EA050F08BF90EA020FF9
:10213C001FBF54EA000C55EA020C7FEA645C7FEA8C
:10214C00655C00F0E2804FEA5454D4EB5555B8BFAF
:10215C006D420CDD2C4480EA020281EA030382EA20
:10216C00000083EA010180EA020281EA0303362DB2
:10217C0088BF30BD11F0004F4FEA01314FF4801C85
:10218C004CEA113102D0404261EB410113F0004F97
:10219C004FEA03334CEA133302D0524263EB43034E
:1021AC0094EA050F00F0A780A4F10104D5F1200EEC
:1021BC000DDB02FA0EFC22FA05F2801841F1000147
:1021CC0003FA0EF2801843FA05F359410EE0A5F11B
:1021DC0020050EF1200E012A03FA0EFC28BF4CF04C
:1021EC00020C43FA05F3C01851EBE37101F0004502
:1021FC0007D54FF0000EDCF1000C7EEB00006EEB0F
:10220C000101B1F5801F1BD3B1F5001F0CD3490898
:10221C005FEA30004FEA3C0C04F101044FEA4452EF
:10222C0012F5800F80F09A80BCF1004F08BF5FEA76
:10223C00500C50F1000041EB045141EA050130BD56
:10224C005FEA4C0C404141EB0101013C28BFB1F568
:10225C00801FE9D291F0000F04BF01460020B1FAB3
:10226C0081F308BF2033A3F10B03B3F120020CDA86
:10227C000C3208DD02F1140CC2F10C0201FA0CF064
:10228C0021FA02F10CE002F11402D8BFC2F1200CC9
:10229C0001FA02F120FA0CFCDCBF41EA0C0190407F
:1022AC00E41AA2BF01EB0451294330BD6FEA0404C8
:1022BC001F3C1CDA0C340EDC04F11404C4F12002B3
:1022CC0020FA04F001FA02F340EA030021FA04F3C5
:1022DC0045EA030130BDC4F10C04C4F1200220FA1C
:1022EC0002F001FA04F340EA0300294630BD21FA5A
:1022FC0004F0294630BD94F0000F83F4801306BF20
:10230C0081F480110134013D4EE77FEA645C18BF13
:10231C007FEA655C29D094EA050F08BF90EA020FAA
:10232C0005D054EA000C04BF1946104630BD91EAA2
:10233C00030F1EBF0021002030BD5FEA545C05D1A5
:10234C004000494128BF41F0004130BD14F58004E4
:10235C003CBF01F5801130BD01F0004545F0FE4158
:10236C0041F470014FF0000030BD7FEA645C1ABF8D
:10237C00194610467FEA655C1CBF0B46024650EAC4
:10238C00013406BF52EA033591EA030F41F40021F0
:10239C0030BD00BF90F0000F04BF0021704730B576
:1023AC004FF4806404F132044FF000054FF000014B
:1023BC0050E700BF90F0000F04BF0021704730B50C
:1023CC004FF4806404F1320410F0004548BF4042E1
:1023DC004FF000013EE700BF42004FEAE2014FEA36
:1023EC0031014FEA02701FBF12F07F4393F07F4F11
:1023FC0081F06051704732F07F4208BF704793F014
:10240C007F4F04BF41F40021704730B54FF4607426
:10241C0001F0004521F000411CE700BF50EA010229
:10242C0008BF704730B54FF000050AE050EA0102D2
:10243C0008BF704730B511F0004502D5404261EB42
:10244C0041014FF4806404F132045FEA915C3FF483
:10245C00D8AE4FF003025FEADC0C18BF03325FEA20
:10246C00DC0C18BF033202EBDC02C2F1200300FAD1
:10247C0003FC20FA02F001FA03FE40EA0E0021FAF6
:10248C0002F11444BDE600BF4FF0FF3C06E000BF74
:10249C004FF0010C02E000BF4FF0010C4DF804CDE1
:1024AC004FEA410C7FEA6C5C4FEA430C18BF7FEAA1
:1024BC006C5C1BD001B050EA410C0CBF52EA430CCF
:1024CC0091EA030F02BF90EA020F0020704710F14F
:1024DC00000F91EA030F58BF994208BF90422CBFDE
:1024EC00D8176FEAE37040F0010070474FEA410CD7
:1024FC007FEA6C5C02D150EA013C07D14FEA430CF5
:10250C007FEA6C5CD6D152EA033CD3D05DF8040B65
:10251C00704700BF8446104662468C461946634697
:10252C0000E000BF01B5FFF7B7FF002848BF10F16E
:10253C00000F01BD4DF808EDFFF7F4FF0CBF0120B3
:10254C0000205DF808FB00BF4DF808EDFFF7EAFF2F
:10255C0034BF012000205DF808FB00BF4DF808EDEA
:10256C00FFF7E0FF94BF012000205DF808FB00BFDF
:10257C004DF808EDFFF7CEFF94BF012000205DF869
:10258C0008FB00BF4DF808EDFFF7C4FF34BF012076
:10259C0000205DF808FB00BF10B5054C237833B95B
:1025AC00044B13B10448AFF300800123237010BD1A
:1025BC00E80800200000000084EB000808B5034B7D
:1025CC001BB103490348AFF3008008BD00000000B5
:1025DC00EC08002084EB000808B500210E4802F03E
:1025EC00E2FF4FF478410C4803F04BF864220821C9
:1025FC00094803F043F80949074809F099F90849D3
:10260C00054809F095F90749034809F091F90120AB
:10261C0008F080FEFBE700BFAC0E00209CEB00082E
:10262C00A3EB0008AFEB000810B5A0225021054821
:10263C0002F09AFABDE8104001231322122102483D
:10264C0003F00DBEAC0E00207C0E00202DE9F743EC
:10265C0047F6EF340022B32511460223CDE900548E
:10266C00394802F099F9022300223A21CDE90054AD
:10267C00354802F091F902239E2200213248019440
:10268C0000933C2302F088F9192301940093112242
:10269C0013233D212C4802F093FF03244FF004092F
:1026AC002A4FDFF8A4803E46032533686BB9042318
:1026BC0008220C21404603F0DDF80423CDE90090FC
:1026CC0022462946404602F067F933683BB1CDE912
:1026DC000093224604232946404602F05DF9053555
:1026EC003A2D06F17C06E0D105349E2C07F1040747
:1026FC00D9D10024164E174F0025DFF85C9006EB5D
:10270C00040818F82530B3B1144B3A681878144BF8
:10271C00D9F8001003EBC0035B6822440193042337
:10272C00294402EB820201EB81010748009303323A
:10273C00033102F031F90135042DE2D10134042CBE
:10274C00DAD103B0BDE8F083AC0E00200409002000
:10275C00620E0020A00E0020AC010020600E0020B4
:10276C000000002000202DE9F04F334A334C16783E
:10277C00334ADFF8D0C0D2F800B0334A9CF80030AE
:10278C001268DFF8C8A004EB82040246DFF8C090A0
:10279C00DFF8C0E0DFF8C08087B05D4600F10801CB
:1027AC000BF104076944019723B958F83670BF5CE4
:1027BC000F7005E0012B33D0022B34D0032B35D016
:1027CC000F780132D2B22FB10A2D32D87C276F4349
:1027DC00E75977BB019F0135BD4201F10401E3D1FB
:1027EC000130042804F10404D7D10133DBB2032BEC
:1027FC0088BF0023029A8CF80030184B4FF47A7182
:10280C001A60039A05205A60049A9A60059ADA6055
:10281C00032209F013F907B0BDE8F04FFFF716BF1C
:10282C005AF83670C3E759F83670C0E75EF8367060
:10283C00BDE707B0BDE8F08F600E00200409002052
:10284C00AC010020A40E0020A00E0020700000207F
:10285C00A80000200000002038000020620E00209C
:10286C002DE9F04F00260A24102585B0132356229B
:10287C003C21CDE90046BB4802F08EF807233A22F2
:10288C004221CDE90046B74802F086F8B64B3246F5
:10289C003C21B44801930095142302F0A3FDB34BE3
:1028AC002C223C21CDE90053AE48142302F09AFDB2
:1028BC00AF4B44223C21CDE90053AA48142302F02B
:1028CC0091FDAC4E4FF47841A64802F0DAFE3B2263
:1028DC004421A44802F0D2FEDFF89C9222463178C3
:1028EC00A04809F06AF857223E219E4802F0C6FE25
:1028FC00D9F80020A14903A80BF07CF803A999484A
:10290C0009F009F84FF6A051964802F0BAFEDFF82C
:10291C00708299223E21934802F0B0FE9949914869
:10292C0008F0F9FFD8F80030974F012B00F3B8806E
:10293C003D78002D40F0B48029468A4802F033FEE1
:10294C004FF4FC61874802F09CFE1822294685480A
:10295C0002F094FE8D49834808F0D9FF2246317865
:10296C00804809F02CF88A497E4808F0EBFF894929
:10297C007C4808F0CCFF2246D9F80010794809F0C1
:10298C0028F88349774808F0DDFF8349754808F03B
:10299C00CFFF8249734808F0BAFF4CF218617148B6
:1029AC0002F06FFE822229466E4802F067FE7C49D7
:1029BC006C4808F0BDFF7B496A4808F0A8FF4FF649
:1029CC00A051684802F05DFE99220821654802F08A
:1029DC0055FE7549634808F09AFFDFF8D0A1614DA8
:1029EC009AF800403CB1724803F022FE0021704876
:1029FC0003F056FC0446002008F04CFC00284FF66F
:102A0C00FF7008BF012409F09BF981B2284602F03F
:102A1C0038FE00220121284602F030FE6549284686
:102A2C0008F079FF4FF6FF7009F08AF981B2284659
:102A3C0002F027FE5A222321284602F01FFE5E4A8E
:102A4C0033781068D9F80010013B00FB03110A22FF
:102A5C00284608F0BEFF192008F05CFC002CBFD003
:102A6C001F24002140F25510544A002342F8231031
:102A7C001F338342FAD1013C14F0FF0402F104022B
:102A8C00F3D14FF47A7008F045FC2146354802F03A
:102A9C008AFD0123C9F800403B703370FFF7E0FE5C
:102AAC0004210023464A3B701160464A464F127877
:102ABC00464957F83240C8F8003000229818C0B286
:102ACC00205C01F822000132042AF7D10433DBB276
:102ADC00102B01F10101F0D10721002009F03BF985
:102AEC0000241723DFF8E890122289F800003E2119
:102AFC00CDE900341B48112301F04EFF4FF01208B2
:102B0C004FF0050BDFF85CA02546382699F800201D
:102B1C0057F832305B5D53B107EBC2025368314654
:102B2C00CDE900B342460523504601F035FF063689
:102B3C000135502EEDB2E9D10434E4B2102C08F179
:102B4C000608E1D10022234B1A7008F0E1FBFFF7D5
:102B5C0021FC214BC3E90001FFF778FD05B0BDE86E
:102B6C00F08F00BFAC0E0020AAEC00082AEF000882
:102B7C00AAF10008E5000020A80E0020B6EB000822
:102B8C00A00E0020BBEB00087C030020BFEB00086C
:102B9C00140D0108C7EB0008CFEB0008DBEB0008B5
:102BAC00E4EB0008EFEB0008FDEB0008780E0020CA
:102BBC007C0E002009EC0008A8010020040900206C
:102BCC00AC010020600E002000000020620E0020EE
:102BDC00610E0020A40E0020580F00202DE9F74FA5
:102BEC001E24DFF80491414F00252B46C5EB4512FE
:102BFC00224459F822200AB10133DBB20B2B69D1E4
:102C0C003B4A3B681268013393423B6022D3394EF6
:102C1C003378082B01D9FFF7DFFC4FF010084FF683
:102C2C00FF732C223C21CDE900833348142301F09F
:102C3C00B3FE642008F06EFB304B2C22CDE90083F0
:102C4C003C2114232C4802F0CDFB00233B6033784D
:102C5C0001333370032604EB8408DFF89CA04FEAA1
:102C6C00840B08F1030804234FF6FF723146CDE9BB
:102C7C0000325046424601F08FFE3C217143322215
:102C8C00052001F51B7108F0D9FE05360F2008F060
:102C9C0041FB3A2EE7D140F2551609EB0B03012C00
:102CAC000CD01946002251F8040C1F32B24241F8E4
:102CBC007C0BF8D1013CE4B2043BF0E72022104B32
:102CCC001E241A6004220F4B1A60FFF7BFFCFFF79B
:102CDC0085FF002301350B2D88D1013C14F0FF0436
:102CEC0082D103B0BDE8F08F04090020A80E0020AB
:102CFC00A8010020E5000020AC0E00202AEF0008FF
:102D0C00A00E0020AC010020F0B400217C27124B57
:102D1C00124A1C78124B12681B681248C3EB4313FF
:102D2C001344114A114D02EB830300EBC400002243
:102D3C0005EB010C1CF822401CB107FB02F44668A1
:102D4C001E510132042AF5D10131042903F1040387
:102D5C00EDD1F0BCFFF742BF600E0020A00E0020AA
:102D6C00AC0100200000002004090020620E0020AD
:102D7C002DE9F8434FF07C0CDFF8A480DFF8A4E0D9
:102D8C00D8F80010DEF800300C46274A274E0CFB12
:102D9C00032C01F1040900220CEB840516F82270B7
:102DAC008FB1012804D19F18092F09DDBDE8F883E4
:102DBC00471C1DD19F18002FF8DD55F87C7C00E0D6
:102DCC00EF6F002FF2D10132042A05F17C05E5D119
:102DDC0001344C4506F10106DDD110B90131C8F8BA
:102DEC0000101844CEF80000BDE8F843FFF72EBCE5
:102DFC000028E8D11D2C0EDDFFF786FF0C4B1A784E
:102E0C000C4B1A70FFF72CFDBDE8F8433222192148
:102E1C00052008F013BE6F68002FD4D0ECE700BF7C
:102E2C00A00E0020AC01002004090020620E00203E
:102E3C00610E0020600E00202DE9F04F002187B0BC
:102E4C00BC4802F0B0FB4FF6A051BA4802F019FC96
:102E5C0099220821B74802F011FCB749B54808F08F
:102E6C0056FDB64B1B78002B72D04FF47841B1480D
:102E7C0002F007FC0022AF48114602F0FFFBB049FC
:102E8C00AC4808F055FDAF49AA4808F051FD4FF485
:102E9C007871A84802F0F5FBAB49A64808F048FD4C
:102EAC00AA49A44808F044FDA949A24808F040FDED
:102EBC00A849A04808F03CFDA2499E4808F038FDFE
:102ECC0049F660219B4802F0DCFBA349994808F0C5
:102EDC002FFDA249974808F02BFDA149954808F011
:102EEC0027FDA049934808F023FD9649914808F026
:102EFC001FFD94498F4808F01BFD4FF4FA7008F041
:102F0C0009FA994803F016FCA8B10021894802F08F
:102F1C004AFB4FF47841874802F0B3FB6422082146
:102F2C00844802F0ABFB9149824808F001FD47F25E
:102F3C00305008F0EFF94FF478417E4802F0A1FBD5
:102F4C008B497C4808F0FEFC4FF4FA7008F0E2F96B
:102F5C000021784802F027FB4FF6A051754802F08B
:102F6C0090FB99220821734802F088FB7249714842
:102F7C0008F0CDFC4CF218616E4802F082FB822204
:102F8C0000216C4802F07AFB7A496A4808F0D0FCC0
:102F9C007949684808F0BBFC0024684B1F783FB1A6
:102FAC00714803F045FB00216F4803F079F907469F
:102FBC00042008F06FF9072100284FF0000008BF2B
:102FCC00012708F0C8FE0B218046002008F0C3FE44
:102FDC0000EB400010214600002008F0BCFE00EB86
:102FEC00400040000A30C3B203210020039308F0D4
:102FFC00B2FE4FF0000AF6B25FFA80FB0622039B8A
:10300C004FEA8A0502FB0A325C4BEDB203EB0A096C
:10301C0006F11303711F0293BBF1000F08D1584B3B
:10302C005FFA88F053F830305B5D89F8003008E0C7
:10303C00BBF1010F6FD0BBF1020F72D0BBF1030FCC
:10304C0073D099F800307BB14D485FFA88F300EBF0
:10305C00C3035B683748019305230093CDE9041241
:10306C0001F09AFCDDE90412029B063101358B421A
:10307C00EDB209F10409CFD10AF1010ABAF1040F3A
:10308C00BCD1404E56F8243003B14CB97923002200
:10309C000021CDE9003227485023082201F07CFCA6
:1030AC004FF6FF7008F04CFE81B2224802F0E9FAAC
:1030BC00354D002201211F4802F0E0FA33491D482A
:1030CC0008F025FC55F8242056F82410052008F0AB
:1030DC00B5FC07F0F1FF55F82400013408F01AF99B
:1030EC00E4B20021052008F023FD722C04D94FF422
:1030FC00FA7008F00FF90024002F3FF44EAF0021B6
:10310C000C4802F050FAC82008F004F907B0BDE8EA
:10311C00F04FFFF7A5BB1E485FFA88F350F8333029
:10312C0082E71C485FFA88F3F8E71B485FFA88F3DC
:10313C00F4E700BFAC0E0020FDEB0008780E002079
:10314C0017EC0008140D010825EC00082FEC000802
:10315C003CEC000846EC000851EC00085FEC000861
:10316C006AEC000871EC00087C0E00207AEC000878
:10317C0087EC00088BEC0008EFEB0008620E0020D7
:10318C000000002000040020B001002095EC000895
:10319C003800002070000020A800002010B54FF46B
:1031AC00E131224808F0B8FD0621214801F0D0FF9A
:1031BC0000211F4801F04EFE01211D4802F0F0F9DC
:1031CC00C42007F0B1FF044608F0A2F8204408F030
:1031DC00B3FD0721002008F0BEFD164B022118702C
:1031EC00002007F0B7FF0221012007F0B3FF0221F6
:1031FC00084607F0AFFF0221032007F0ABFF0221C6
:10320C00042007F0A7FF0121052007F0A3FF0A20E7
:10321C0008F080F8002008F03DF8BDE810400128C7
:10322C0004BF054B1870FFF707BE00BF1C1200202F
:10323C00AC0E0020600E0020780E00202DE9F74F18
:10324C00182300213522CDE9003139482C230821DF
:10325C0001F0A2FB4FF6DC7008F072FD044608F09A
:10326C0057F800F5FA70FFF795F8324EDFF8C8B052
:10327C00C6E90001DFF8C4A02D4F9BF800503DB10A
:10328C00504603F0D5F90021504603F009F80546E5
:10329C00002007F0FFFFB0B908F03AF8FFF77AF812
:1032AC00D6E90023FEF738FF254B8046186889467F
:1032BC00FFF770F802460B4640464946FFF758F9AF
:1032CC00002818BF01253D221021384602F0D6F9FE
:1032DC00A1B2384602F0D5F938461A4908F01BFB62
:1032EC004FF6FE73013419209C4288BF002408F06D
:1032FC0011F8002DC1D00F2300220C21CDE9003292
:10330C000B483A22232301F047FB08F001F80C4B41
:10331C001B681844FFF73EF8C6E9000107F0F8FFF8
:10332C00FFF738F8084BC3E9000103B0BDE8F08F94
:10333C00AC0E0020580E0020780E00207C0E0020D1
:10334C00E0000020A3EC0008580F0020AB4B2DE947
:10335C00F0411B78AA4CDFF8AC82002B74D0AA4841
:10336C0003F066F9A84802F087FFA84DA84E2B6819
:10337C0037680344A4482B6002F081FF2B68381A8D
:10338C00002B306080F23581002398422B6006DAE6
:10339C00002333602B684E2BC4BF4F232B60336844
:1033AC0000219E2BC8BF9F239748C8BF336002F0F3
:1033BC0069FFE8B107F0ACFFFEF7ECFFD4E900239E
:1033CC00FEF7AAFE064698F800000F46FEF7F2FF3D
:1033DC0002460B4630463946FFF7CAF840B100208A
:1033EC00FFF7C6FC07F094FFFEF7D4FFC4E9000119
:1033FC000221854802F054FF08B1FFF7B3F9824867
:10340C0002F03AFF00280CDD7F4802F035FF814BBB
:10341C0000281B68B8BF4042984202DD0120FFF72C
:10342C00A7FC794802F028FF00280DDA764802F054
:10343C0023FF784B00281B68B8BF4042984203DD3D
:10344C004FF0FF30FFF794FC022007F023FFF0B998
:10345C00714D07F05DFFFEF79DFFD5E90023FEF7E8
:10346C005BFE6E4B064618680F46FEF793FF02464E
:10347C000B4630463946FFF77BF840B107F048FF62
:10348C00FEF788FFC5E900010120FFF771FC012060
:10349C0007F000FFF8B9604D07F03AFFFEF77AFF2E
:1034AC00D5E90023FEF738FE5C4B064618680F463C
:1034BC00FEF770FF02460B4630463946FFF758F8C8
:1034CC0048B107F025FFFEF765FFC5E900014FF095
:1034DC00FF30FFF74DFC032007F0DCFEE8B94E4D42
:1034EC0007F016FFFEF756FFD5E90023FEF714FE92
:1034FC004A4B064618680F46FEF74CFF02460B4631
:10350C0030463946FFF734F838B107F001FFFEF7C3
:10351C0041FFC5E90001FFF725F9042007F0BAFEC9
:10352C000546E8B907F0F4FEFEF734FFD4E90023B2
:10353C00FEF7F2FD064698F800000F46FEF73AFF3C
:10354C0002460B4630463946FFF712F840B1284682
:10355C00FFF70EFC07F0DCFEFEF71CFFC4E90001D0
:10356C00002007F097FEB8B907F0D2FEFEF712FF65
:10357C00294BD3E90023FEF7CFFD284B06461868EC
:10358C000F46FEF707FF02460B4630463946FEF75C
:10359C00EFFF08B1FFF752FE07F0BAFEFEF7FAFE96
:1035AC00D4E90023FEF7B8FD06466FF063001C4B10
:1035BC000F461A7898F80030013AC3F57A7300FB7D
:1035CC000230FEF7F7FE02460B4630463946FEF750
:1035DC00CFFF40B10020FFF7CBFB07F099FEFEF7C1
:1035EC00D9FEC4E90001BDE8F0410021052007F037
:1035FC0015BE0028BFF6CEAECAE600BF780E00207E
:10360C00580F0020E40000207C0E00200C06002047
:10361C0010060020740E0020580E0020E000002040
:10362C00E500002000207047704790F8843013B1FB
:10363C00B0F97C007047B0F95000704790F88430B6
:10364C0013B1B0F980007047B0F95400704737B52A
:10365C00047F05680094AC6AA04703B030BD00003D
:10366C002DE9F74F9A464FF6FF73C0E91633DFF892
:10367C00AC916B4CD9F80430019254F823300D46C0
:10368C00C3F30312042A00F2C680664E03F00F0344
:10369C0056F82210012202FA03F31B0490F825704D
:1036AC0090F826B00B612A235F4960480B700A23FF
:1036BC0005F07FF85E4BDFF87C811A685E4BD8F81A
:1036CC000410B2FBF3F2D8F804305B1A9A42FADC1D
:1036DC00D9F8043054F82320C2F30313042B00F25E
:1036EC009A80791957444FF0010A56F8233002F0AA
:1036FC000F024D4D0AFA02F21A610B122B703B129B
:10370C0004226970AB7029460A234848EF7005F013
:10371C0050F8D9F8043054F8232002F00F03C2F308
:10372C0003120AFA03F3042A4FEA034373D856F838
:10373C002220294613612B2352462B703B480A2327
:10374C0005F037F83A4BD8F804101A683A4B394F51
:10375C00B2FBF3F27B685B1A9A42FBDCDFF8BC80AD
:10376C00D8F8043054F82330C3F30311042952D889
:10377C004FF00109019A56F821100C9803F00F0331
:10378C005A4409FA03F383440B6113122B704FEA6A
:10379C002B236A70AB7004220A232349234885F833
:1037AC0003B005F006F8D8F8043054F8232002F0E2
:1037BC000F03C2F3031209FA03F3042A4FEA03437B
:1037CC0029D856F82220184913612C234A462B700D
:1037DC0016480A2304F0EDFF154B79681A68164B4E
:1037EC001448B2FBF3F243685B1A9A42FBDC0B4BB6
:1037FC005B6854F82330C3F30312042A0BD809492D
:10380C0003F00F0351F82210012202FA03F30B61AB
:10381C0003B0BDE8F08F00231B61FFDE98080108A0
:10382C00C008010860060020A40F0020AC0F002087
:10383C0074060020001000E040420F0070B50446F2
:10384C000D461A4EADF5707DB5F5F07F0BD269467D
:10385C006A0004EB4505AC421DD034F8023B5BBA60
:10386C0021F8023BF7E76946A31E04F2BE3033F899
:10387C00022F52BA834221F8022BF8D14FF0FF33BA
:10388C004FF470726946304604F093FF04F570747F
:10389C00A5F5F075D8E74FF0FF33694692B20348AF
:1038AC0004F087FF0DF5707D70BD00BFAC0F0020DC
:1038BC0010B586B003AC84E80E000093232194E885
:1038CC000C0002F069FA06B010BD000030B590F89B
:1038DC00443085B003B300250124114BADF80C40E6
:1038EC0002938DF80E5004AB13E90E0080F844508F
:1038FC000C48FFF7DDFF0C4B9A680C4B53F8223049
:10390C00C3F30312042A09D8094903F00F0351F831
:10391C0022209C402404146105B030BD2D61FFDED3
:10392C00C0FC9B010410002098080108C008010885
:10393C0060060020232102F065BA000008B590F85B
:10394C004530C3B990F84410A9B901230B4A80F84B
:10395C00443090680A4A52F82020C2F3031004281D
:10396C000AD8084902F00F0251F82010934006487B
:10397C000B61FFF7DFFF08BD0961FFDE9808010846
:10398C00C008010860060020041000202DE9F04F4B
:10399C0093B0CDE9031290F8851004461D469DF8AE
:1039AC0078B0002940F0D2801F2B40F2CF80D0F8A5
:1039BC00A820002A40F03881436F039AC06E02EBB6
:1039CC000308804580F2C280A36F049A276F02EB34
:1039DC000309B94580F2BA80062202FB0B81636EA3
:1039EC00994240F3B380A16E09EBCB068E4240F3B3
:1039FC00AD809845C0F2AD80637F02FB038290429C
:103A0C0040F3A7808945C0F2A48009EBC3039F4211
:103A1C00CCBF00270127BBF1010F4FEA850A40F00C
:103A2C009A80DDE91C32934200F09580002F40F023
:103A3C00928094F844300FAEFBB1AE4BADF844B06D
:103A4C0010938DF8467096E80E00AB4884F84470DD
:103A5C00FFF72EFFA94B9A68A94B53F82230C3F3FA
:103A6C000312042A00F28F81A64903F00F0351F8C8
:103A7C0022200BFA03F31B041361236809F10702DC
:103A8C00009241464A462046DF6B08F10503B847D1
:103A9C009D4B554458595A1908250F901379DFF846
:103AAC006C9233711D9BDFF86882C3F3072A1C9B51
:103ABC00C3F30723049300271D9BDBB20393F35D31
:103ACC0002221BEA030F17BF049B039B89F80030EB
:103ADC001C9B08BF89F800A089F8013049460A23CD
:103AEC004046013704F065FE052FE8D14FEA4B0341
:103AFC005FFA83FB039B022289F8013049460A23B3
:103B0C00404689F800A0013D04F053FE15F0FF0576
:103B1C00D1D194F84530CBB994F84430B3B90123E2
:103B2C00764A84F844309168754A52F82120C2F3E1
:103B3C000311042900F22981724850F8211002F077
:103B4C000F0293406C480B61FFF7F4FE13B0BDE815
:103B5C00F08F01275FE701230026AA446A4D84F801
:103B6C004530DDF80C8005EB0A030593052E16BFD6
:103B7C00059B00259D5DBBF1010FDDF810A037D131
:103B8C00DDE91C32934233D1039B0AF10807F1188B
:103B9C00EA0708D523680691D3F8109052462046C0
:103BAC001C9BC84706990AF1010A57454FEA55056F
:103BBC00EED10136062ED844D8D194F8463084F88C
:103BCC004530002BC2D194F844100029BED10123FA
:103BDC004A4A84F844309068494A52F82020C2F38B
:103BEC000310042800F2D380464951F82010A6E7B0
:103BFC000827EB0712D523681C9ACDE900B2414681
:103C0C00D3F8249052465B462046C847013F17F034
:103C1C00FF074FEA5505DA44EBD1CAE7DDE91C3260
:103C2C009342F3D02368E8E713899D428ED35089E1
:103C3C00A8428BD3ED1A0C2301200026ADB25D43B4
:103C4C0084F84500BBF1010F506898BF884605EB1E
:103C5C00000335F800903546126893F804A00A92D8
:103C6C005A7998BFCDF818800B9293F9072093F9E5
:103C7C000830059282BFBDF914200FFA83F8069222
:103C8C00049A0796134409930B9BAB4295D90027D2
:103C9C00049A05EB08030BFB03230C933B46099A90
:103CAC002A440D92FAB2924545D936B980260A9A21
:103CBC0012F8092009F101090792079A324008927B
:103CCC0004D001339BB276080137EBE7002BFAD016
:103CDC00BBF1010F22681DD10398059901441C9872
:103CEC0039440090126A20469446C91A0D9AE0474E
:103CFC00089BE8E7C0FC9B01041000209808010811
:103D0C00C0080108600600206AFA0008A40F002011
:103D1C00AC0F00201C980699CDE900B039440398EB
:103D2C00526AC91A94460BFB010103FB0BF32046A4
:103D3C000C9AE047DCE77BB1BBF1010F20680ED198
:103D4C00059A039951181C9A51440092099A076AD2
:103D5C002A442046C91AB8470135EDB294E71C9F96
:103D6C000699CDE900B7476A049808EB05020BFBEE
:103D7C00020251440398C91A0BFB010103FB0BF31C
:103D8C002046B847E8E73F61FFDE2D61FCE709619B
:103D9C00FAE700BF2DE9F04F90F885B087B00446E4
:103DAC000193BBF1000F40F02B81436F1944436E1C
:103DBC009942C0F22581836F1A44836E9A42C0F2F5
:103DCC001F81C36E994280F21B81036F9A4280F26D
:103DDC00178190F825A090F8269090F844308E4FDB
:103DEC00DFF838828E4E8A449144F3B101258D4B15
:103DFC00ADF8145004938DF816B006AB13E90E0011
:103E0C0080F844B08848FFF753FDD8F8083057F8CD
:103E1C002330C3F30312042A00F2F58003F00F03DE
:103E2C0056F822209D402D041561E36D7F4D9A4577
:103E3C00DFF8FCB144D0D8F8043057F82330C3F382
:103E4C000312042A00F2E28056F82210012203F039
:103E5C000F0302FA03F31B040B612A2329462B7070
:103E6C0074480A2304F0A5FCDBF80030724A73494D
:103E7C00B3FBF2F248684B681B1A9A42FBDCD8F889
:103E8C00043057F82330C3F30312042A00F2BE8027
:103E9C0056F82210012203F00F0302FA03F30B6110
:103EAC00CAF30723AB702B705FFA8AF3EB706B705D
:103EBC0004220A235D495F4804F07BFCC4F85CA033
:103ECC00A36D994543D0D8F8043057F82330C3F389
:103EDC000312042A00F29A8056F82210012203F0F1
:103EEC000F0302FA03F31B040B612B234F492B70B6
:103EFC0050480A2304F05DFCDBF800304E4A4F4971
:103F0C00B3FBF2F248684B681B1A9A42FBDCD8F8F8
:103F1C00043057F82330C3F30312042A76D856F82A
:103F2C002210012203F00F0302FA03F30B61C9F311
:103F3C000723AB702B705FFA89F3EB706B70042264
:103F4C000A233A493B4804F034FCC4F85890D8F89A
:103F5C00043057F82330C3F30312042A56D856F80A
:103F6C002210012203F00F0302FA03F31B040B616E
:103F7C002C232E492B702F480A2304F01AFCDBF853
:103F8C0000202D4B2D49B2FBF3F248684B681B1AED
:103F9C009A42FBDCD8F8043057F82330C3F30312F1
:103FAC00042A33D84FF0010956F8222003F00F03EE
:103FBC0009FA03F31361019B02221B0A2B70019B6C
:103FCC001A496B701B480A2304F0F3FB94F8453034
:103FDC00B3B994F844209AB9D8F8083084F84490CE
:103FEC0057F82330C3F30311042912D856F82120B3
:103FFC0003F00F0309FA03F30B481361FFF79AFC64
:10400C0007B0BDE8F08FCBF810B0FFDE00231B61CA
:10401C00FBE71261F9E700BFC00801089808010826
:10402C0060060020C0FC9B0104100020A40F00209F
:10403C0074060020AC0F002040420F00001000E07E
:10404C00F0B590F8443004460F4685B003B3002613
:10405C000125254BADF80C5002938DF80E6004AB86
:10406C0013E90E0080F844602048FFF721FC204B38
:10407C009A68204B53F82230C3F30312042A2ED82B
:10408C001D4903F00F0351F822209D402D041561AA
:10409C001A493B0A0B7002220A2319484F7004F08C
:1040AC0088FB94F84530C3B994F84410A9B901239E
:1040BC000F4A84F8443090680E4A52F82020C2F31C
:1040CC00031004280DD80C4902F00F0251F82010EF
:1040DC00934006480B61FFF72DFC05B0F0BD36612F
:1040EC00FFDE0961FCE700BFC0FC9B01041000204F
:1040FC0098080108C008010860060020A40F0020E1
:10410C00AC0F00202DE9F04F1D4690F8853085B09E
:10411C008246DDE90E781446002B7CD10123BA1AB5
:10412C00002A80F84530A5EB0103B8BF5242002BA2
:10413C00B8BF5B429A4205DD2E463D4637460E46D9
:10414C0021463446A94205DD26463C4637460E46F6
:10415C00294635463E1B681A029086EAE670A0EBAB
:10416C00E670A742D4BF4FF0FF37012703909A4265
:10417C00A5EB010089464FF000034FEA60064DDDC8
:10418C004D4520DB039A0133B61A10D5012BDAF812
:10419C0000200FD1D2F810B043460A4650462146B3
:1041AC00D847029B3C441E44002309F1010109F14C
:1041BC000109E5E7CDF80080D2F81CB050460A465C
:1041CC002146D847EDE743B1DAF80020CDF800805E
:1041DC00D5690A4621465046A8479AF846308AF8CF
:1041EC004530C3B99AF84410A9B90123214A8AF879
:1041FC0044309068204A52F82020C2F3031004285F
:10420C0036D81E4902F00F0251F8201093401C487A
:10421C000B61FFF78FFB05B0BDE8F08F4D451EDB42
:10422C00039A0133B61A0FD5012BDAF800200ED100
:10423C00D2F810B0434622465046D847029B3C4425
:10424C001E44002309F1010109F10109E6E7CDF84B
:10425C000080D2F820B050462246D847EEE7002B1B
:10426C00BBD0DAF80020CDF80080156A2246B2E700
:10427C000961FFDE98080108C008010860060020EB
:10428C00041000202DE9F04F1D4690F885308FB0BA
:10429C00904604460E469DF860201BB100200FB0DE
:1042AC00BDE8F08F0029F9D0012A24D1427F0368A0
:1042BC00029202690192C26800925F692A460B461B
:1042CC004146B847D4F8A83023B9607F00EB4000D2
:1042DC004000E4E719898E42E0D35A89B242DDD31B
:1042EC00711A5E680C2389B203FB0161607F8B79C4
:1042FC00584300B2D3E7931EA1F12006062BB6B2A9
:10430C0001D85F2ECAD8022A40F0C580A44B53F8BE
:10431C0026B0A44B9B5D059310230693636F677FB8
:10432C0008EB030AA36F666E05EB0309059B03FB01
:10433C0007F000EB0A03B34202DBE16E8A4508DBAF
:10434C00069901FB079CA16E8C45D2DB216F894538
:10435C00CFDAB245C0F2A480E16E8B4280F2A0802D
:10436C00A36E9945C0F29C80069B03FB0796236FB6
:10437C009E42B4BF00260126022A40F03481059BE0
:10438C000633DB100893D4E903239A4204D0012F9F
:10439C0002D1002E00F02C81012384F8453000233B
:1043AC000993069B099A934200F0FE80D4E90332EC
:1043BC0093420AD0637F2168CDE90032059A4E6A98
:1043CC00534341462A462046B047002308F10707CD
:1043DC000793DDE907128A42637F00F0DA8011F857
:1043EC000B60002E52D0012B72B25BD1002AA7F1C8
:1043FC00070106DA23682A46D3F810902046E368B2
:10440C00C847720607D523682A46D3F81090204671
:10441C00E368B91FC847B30607D523682A46D3F803
:10442C0010902046E368791FC847F00607D523682B
:10443C002A46D3F810902046E368391FC847310745
:10444C0007D523682A46D3F810902046E368F91E56
:10445C00C847720707D523682A46D3F81090204620
:10446C00E368B91EC847B30707D523682A46D3F8B3
:10447C0010902046E368791EC847F00706D52368DC
:10448C002A461E6939462046E368B047079B083721
:10449C00013307939DE74FF0000BCDE905BB3DE7DA
:1044AC00012669E70799002A03FB01F908EBC90902
:1044BC0009DAE1682268CDE900312046D2F824A05F
:1044CC0049462A46D04771060BD5637FE1682268BE
:1044DC00CDE900312046D2F824A009EB03012A468D
:1044EC00D047B2060BD5637FE1682268CDE9003175
:1044FC002046D2F824A009EB43012A46D047F30604
:10450C000CD5637FE0682268CDE9003003EB4301F2
:10451C00D2F824A020462A464944D04730070BD570
:10452C00637FE1682268CDE900312046D2F824A0EF
:10453C0009EB83012A46D04771070CD5637FE068ED
:10454C002268CDE9003003EB8301D2F824A0204689
:10455C002A464944D047B2070CD5637FE1682268EC
:10456C00CDE900310621D2F824A020462A4601FBD1
:10457C000391D047F30789D5637FE0682268CDE9C2
:10458C000030C3EBC301566A20462A464944B04763
:10459C007CE71D44099B01330993089B9B4400E76E
:1045AC00A40001082402010894F8463084F8453030
:1045BC00CBB994F84410B1B90123484A84F844307B
:1045CC009068474A52F82020C2F30310042800F2E6
:1045DC008280444902F00F0251F820109340424867
:1045EC000B61FFF7A7F9607F059B4343184680E6F4
:1045FC0094F84430F3B13D4BADF834700C938DF816
:10460C0036600EAB13E90E00374884F84460FFF7B0
:10461C004FF9324B9A68324B53F82230C3F30312E2
:10462C00042A56D82F4903F00F0351F822209F403B
:10463C003F041761069A059B4A442168013A00928F
:10464C005344CD6B4A4651462046013BA8470027B0
:10465C00DFF89CA0069BBB4238D05E46059DDFF878
:10466C009490089B5B44B34220D04FF08008337881
:10467C000793A5F108030993B5B1079B514613EABB
:10468C00080F14BFE368236948461A0A8AF8002009
:10469C008AF8013002220A2304F08BF8099B013DB1
:1046AC009D424FEA5808E7D10136DAE75DB123693C
:1046BC0051461A0A8AF800208AF8013002220A238D
:1046CC000C4804F076F8B3460137C3E794F845304C
:1046DC006EE73661FFDE0961FCE700BF9808010850
:1046EC00C00801086006002004100020C0FC9B01DB
:1046FC00A40F0020AC0F002013460A46232101F022
:10470C00B7BB000030B549BAB2F5F07F1446ADF531
:10471C00717D89B212D26B460022A24203D023F8DB
:10472C00021B0132F9E752004FF0FF336946104883
:10473C0092B204F03EF80DF5717D30BD6A4600234F
:10474C000133B3F5F07F22F8021BF9D1084D4FF07D
:10475C00FF334FF4707269462846A4F5F07404F0E8
:10476C0028F8B4F5F07FF2D2002CE4D06200DBE73D
:10477C00AC0F00202DE9F0431E4690F8853004461E
:10478C0087B0002B6DD1476F436E0F449F4268DB9F
:10479C00C36E9F4265DA856F036F15449D4260DAE4
:1047AC00816E8D42BEBF6D1A76190D46AA199342C1
:1047BC00B8BF5E1B002E54DD90F8443023B34FF08D
:1047CC0000094FF001082B4BADF8148004938DF8C1
:1047DC00169006AB13E90E0080F844902648FFF7BC
:1047EC0067F8264B9A68264B53F82230C3F3031212
:1047FC00042A39D8234903F00F0351F8222008FA70
:10480C0003F84FEA08431361AB192268013B00938C
:10481C0039463B462046D2F83C802A46C0473246B1
:10482C002046BDF83810FFF76DFF94F84530C3B93A
:10483C0094F84410A9B90123104A84F844309068C4
:10484C000F4A52F82020C2F3031004280FD80D4948
:10485C0002F00F0251F82010934007480B61FFF74C
:10486C0069F807B0BDE8F083C9F81090FFDE096164
:10487C00FCE700BFC0FC9B01041000209808010855
:10488C00C0080108600600202DE9F0431E4690F890
:10489C008530044687B0002B6CD1876F836E17442C
:1048AC009F4267DB456FC36E0D449D4262DA026F17
:1048BC0097425FDA426E9542BEBFAD1A7619154625
:1048CC00AA199342B8BF5E1B002E53DD90F84430FA
:1048DC0023B34FF000094FF001082A4BADF81480B8
:1048EC0004938DF8169006AB13E90E0080F84490F3
:1048FC002548FEF7DDFF254B9A68254B53F82230EF
:10490C00C3F30312042A38D8224903F00F0351F8D9
:10491C00222008FA03F84FEA084313612268009733
:10492C00AB19013B29462046D2F83C803A46C04799
:10493C0032462046BDF83810FFF7E4FE94F84530B7
:10494C00C3B994F84410A9B90123104A84F844302F
:10495C0090680F4A52F82020C2F3031004280FD895
:10496C000C4902F00F0251F82010934006480B61DD
:10497C00FEF7E0FF07B0BDE8F083C9F81090FFDE4A
:10498C000961FCE7C0FC9B01041000209808010899
:10499C00C0080108600600202DE9F0471F4690F87A
:1049AC00853086B00446DDF83880002B7CD1456F0D
:1049BC00C06E0D44854277DAA66F236F16449E4273
:1049CC0072DA626EA16E9542BEBFAD1A7F191546A2
:1049DC008E42BEBF761AB0440E46EA19904206EBE0
:1049EC000802B8BF471B9342B8BFA3EB0608002FC1
:1049FC005ADDB8F1000F57DD94F8443023B34FF073
:104A0C00000A4FF001092C4BADF8149004938DF86B
:104A1C0016A006AB13E90E00284884F844A0FEF754
:104A2C0047FF274B9A68274B53F82230C3F30312E6
:104A3C00042A3CD8244903F00F0351F8222009FA28
:104A4C0003F94FEA0943136106EB08022168013AA6
:104A5C000092EB19013B32462046D1F83C90294696
:104A6C00C847204608FB07F2BDF83C10FFF74AFE8A
:104A7C0094F84530C3B994F84410A9B90123104AED
:104A8C0084F8443090680F4A52F82020C2F3031087
:104A9C0004280FD80C4902F00F0251F82010934053
:104AAC0006480B61FEF746FF06B0BDE8F087CAF872
:104ABC0010A0FFDE0961FCE7C0FC9B010410002084
:104ACC0098080108C00801086006002090F89D3085
:104ADC0070B50D46144683B9104EB4F5004F12D381
:104AEC0029464FF0FF334FF48052304603F061FEFD
:104AFC00A4F5006405F58055EFE72846BDE8704045
:104B0C001146FEF79BBE62002946BDE870404FF08F
:104B1C00FF33024892B203F04CBE00BFAC0F002032
:104B2C00014802F0E3BA00BF600F0020002310B56B
:104B3C00C0E91D33C0E91933A0F88430036804467A
:104B4C005B6B98472368E0661B6B2046984723688D
:104B5C0020675B6B204698472368E0671B6B2046F9
:104B6C009847C4F8800010BD38B500251C4B456033
:104B7C000360058180F8205080F8255080F826507D
:104B8C000564016581644265C2640446FFF7CEFF8B
:104B9C004FF6FF7340F201124FF48071C4E90335F4
:104BAC00C4E90535C4E91633E26106230122A4F8F1
:104BBC009A100C492046C4E92255C4E90C55C4E9A5
:104BCC000E55C4F89050A4F8442084F84650C4F80C
:104BDC009C10A4F8A0202566C4F8943038BD00BF02
:104BEC0070FF00080000010108B50121C22006F089
:104BFC00B1FA0121C22006F011FB0121C12006F0FF
:104C0C00A9FA0121C12006F009FB0121C02006F000
:104C1C00A1FABDE808400121C02006F0FFBA00004F
:104C2C002DE9FF4790F84430044688463C4E3D4FF2
:104C3C003D4D0BB34FF0000A4FF001093B4BADF863
:104C4C000C9002938DF80EA004AB13E90E0080F8C3
:104C5C0044A03748FEF72CFEBB6856F82330C3F34C
:104C6C000312042A54D803F00F0355F8222009FA32
:104C7C0003F94FEA094313617B6856F82330C3F3F9
:104C8C000312042A47D855F82210012203F00F030F
:104C9C0002FA03F31B040B6126490A2381F80080F6
:104CAC00254803F086FD254B25491A68254B486895
:104CBC00B2FBF3F24B681B1A9A42FBDC7B6856F88A
:104CCC002330C3F30312042A25D855F822100122ED
:104CDC0003F00F0302FA03F30B6194F84530A3B908
:104CEC0094F8441089B9BB6884F8442056F82330F2
:104CFC00C3F30310042811D855F8201003F00F0348
:104D0C009A400B480A61FEF715FE04B0BDE8F08727
:104D1C00CAF810A0FFDE00231B61FBE70961F9E76D
:104D2C00C00801089808010860060020C0FC9B011F
:104D3C0004100020A40F0020AC0F002074060020EB
:104D4C00001000E040420F002DE9FF4790F844307E
:104D5C0004468846354E364F364D0BB34FF0000A9D
:104D6C004FF00109344BADF80C9002938DF80EA066
:104D7C0004AB13E90E0080F844A03048FEF798FD10
:104D8C00BB6856F82330C3F30312042A48D803F047
:104D9C000F0355F8222009FA03F94FEA094313616E
:104DAC007B6856F82330C3F30312042A3BD855F81A
:104DBC002210012203F00F0302FA03F30B612049C6
:104DCC000A2381F800801F4803F0F3FC1E4B1F4997
:104DDC001A681F4B4868B2FBF3F24B681B1A9A42D5
:104DEC00FBDCBB6856F82330C3F30312042A1AD831
:104DFC00012103F00F0355F8222001FA03F31804E4
:104E0C00106194F8450040B994F8440028B984F82E
:104E1C0044100A481361FEF78DFD04B0BDE8F0871D
:104E2C00CAF810A0FFDE00231B61FBE7C0080108D5
:104E3C009808010860060020C0FC9B0104100020AB
:104E4C00A40F0020AC0F002074060020001000E01E
:104E5C0040420F00F0B590F8443004460E4685B041
:104E6C000BB3002701259A4BADF80C5002938DF82B
:104E7C000E7004AB13E90E0080F844709548FEF7F1
:104E8C0017FD954B9A68954B53F82230C3F30312D8
:104E9C00042A00F21881924903F00F0351F82220E2
:104EAC009D402D04156106F0030636212046E67759
:104EBC00FFF7B6FEE37F032B27D8DFE803F0027C75
:104ECC00C2E394F82430022B04D1C8212046FFF70A
:104EDC003BFF16E0032B08D1C8212046FFF734FF17
:104EEC00022384F82530012309E0042B41D1C82189
:104EFC002046FFF729FF022384F82530032384F88A
:104F0C002630A36C2365E36C6365764B764A1B688D
:104F1C007649B3FBF2F30A22534348684A68121AE3
:104F2C009342FBDC94F84530CBB994F84410B1B9FA
:104F3C000123694A84F844309068684A52F820206A
:104F4C00C2F30310042800F2C080654902F00F027E
:104F5C0051F8201093405F480B61FEF7EBFC4FF6C5
:104F6C00FF732046C4E9163305B0BDE8F040FFF7E7
:104F7C00DDBD052B08D1CC212046FFF7E5FE002333
:104F8C0084F825302023BAE7062B05D1CC21204606
:104F9C00FFF7DAFE1A23A4E7072B08D1CC21204611
:104FAC00FFF7D2FE182384F825300023A7E70B2B3C
:104FBC008BD148218AE794F82430022B04D1A82104
:104FCC002046FFF7C1FE13E0032B05D1A821204694
:104FDC00FFF7BAFE012306E0042B0DD1A8212046D1
:104FEC00FFF7B2FE032384F82530022384F8263021
:104FFC00E36C2365A36C87E7052B08D1A821204619
:10500C00FFF7A2FE202384F825300023EEE7062BC1
:10501C0008D1A8212046FFF797FE012384F82530FC
:10502C001A23E3E7072B08D1A8212046FFF78CFEB3
:10503C00002384F825301823D8E70B2BBFD1E821A7
:10504C00BEE794F82430022B01D108213EE7DA1E8A
:10505C00012A01D8082140E7052B07D10821204659
:10506C00FFF772FE002384F8253048E7062B01D1A8
:10507C0008218CE7072B01D1082190E70B2BE4D1F9
:10508C00882123E794F82430022B01D1682197E77B
:10509C00DA1E012A01D8682199E7052B07D168216E
:1050AC002046FFF751FE002384F825309EE7062B9F
:1050BC0001D16821AEE7072B01D16821B5E70B2B95
:1050CC00E4D128217CE73F61FFDE0961FCE700BFEA
:1050DC00C0FC9B010410002098080108C0080108BE
:1050EC00600600207406002040420F00001000E013
:1050FC002DE9F0470C46074614F8016B36B32546EC
:10510C00384615F8021BFFF78BFD94F80190AA4660
:10511C0009F07F084446013CE4B2FF2C05D0384628
:10512C001AF8011BFFF710FEF5E719F0800F05EBDD
:10513C00080408D015F808000134FF2808BF4FF404
:10514C00FA7006F0E7F8013EF6B2D7E7BDE8F08753
:10515C002DE9F04390F89E3004460E4685B0002BA6
:10516C0056D001254FF00009DFF84482FFF73CFDD3
:10517C00904FD8F80830232157F823308E4803F08D
:10518C000F0305FA03F32363D8F8043057F82330E0
:10519C0003F00F0305FA03F3636300F0D7FD874BAD
:1051AC00874A29461A60874B02F550423032C2209A
:1051BC00A4F8445084F846901A6005F0CBFF2946B9
:1051CC00C22006F02BF82946C12005F0C3FF294662
:1051DC00C12006F023F894F8453084F89E90BBB9B2
:1051EC0094F84420A2B9D8F8083084F8445057F801
:1051FC002330C3F30311042900F2D480724A03F064
:10520C000F0352F821209D406B481561FEF792FB6D
:10521C000121C02005F09EFF0121C02005F0FEFFFA
:10522C00052006F077F80021C02005F0F7FF1420C8
:10523C0006F070F80121C02005F0F0FF962006F072
:10524C0069F894F844300BB3002701255F4BADF897
:10525C000C5002938DF80E7004AB13E90E005648F7
:10526C0084F84470FEF724FB514B9A68514B53F869
:10527C002230C3F30312042A00F29680524903F041
:10528C000F0351F822209D402D0415610B2E84F83C
:10529C00246026D14E492046FFF72AFF94F845306A
:1052AC00C3B994F84410A9B90123414A84F8443095
:1052BC009068404A52F82020C2F30310042875D895
:1052CC00414902F00F0251F8201093403A480B610B
:1052DC00FEF730FB2046E17F05B0BDE8F043FFF759
:1052EC00B9BD20463B49FFF703FF94F824305BB966
:1052FC0020463949FFF7FCFE022384F825300123B0
:10530C0084F826303549C6E7032B0CD120463249A8
:10531C00FFF7EEFE20463621FFF782FCC82120461F
:10532C00FFF712FDE8E7042B08D120462A49FFF7C6
:10533C00DFFE022384F825300323E1E7052B08D197
:10534C0020462549FFF7D4FE002384F8253020237E
:10535C00D6E7062B09D120461F49FFF7C9FE2121AC
:10536C002046FFF75DFC1A23C7E7072B08D1204620
:10537C001949FFF7BDFE182384F825300023BFE739
:10538C00012B04D120461649FFF7B2FEBAE7022BD7
:10539C00B8D120463621FFF743FCC8212046FFF741
:1053AC00D3FCAFE71261FFDE3F61FCE70961FAE76E
:1053BC0098080108C008010804100020AC0F002058
:1053CC0000300140600F002060060020C0FC9B01F3
:1053DC00C9FF000830000108BCFF00086B00010881
:1053EC00960001082DE9F04F8BB0044690F885002B
:1053FC0002AFFB60C7F804D0002840F0B980656F9D
:10540C000D44E16EA94240F3B380A66F236F16449E
:10541C00B34240F3AD80626EAA42C2BFA2EB050B51
:10542C00F8681546A26EDABF8346D7F80C80A0EB5D
:10543C000B08B24240F3A280901BB860BE68B86CF7
:10544C00801B1646B86408EB05029142BA6CB8BFD3
:10545C00A1EB0508B2189342BCBF9B1BBB64B8F10F
:10546C00000F40F38580BB6C002B40F3818094F8D7
:10547C0044302BB34FF000094FF0010A434BA7F80F
:10548C001CA0BB6187F81E9007F1200313E90E00E6
:10549C003F4884F84490FEF70BFA3E4B9A683E4B1B
:1054AC0053F82230C3F30312042A6AD83B4903F0A1
:1054BC000F0351F822200AFA03FA4FEA0A43136148
:1054CC000123BA6C08FA03F984F8453009F1070393
:1054DC0023F00703B2182168ADEB030D013A0092DB
:1054EC00CA6B05EB08039446294632466546013BD8
:1054FC002046A847D7E9023200252E4602FB03BB03
:10550C00FB6C0DF1080A03EB4B0BD14453460BEB30
:10551C00450232F8021B23F8021B9945F9D1424689
:10552C0051462046FFF7D2FAFB6801361D44BB6C8E
:10553C00B342EBD194F8463084F84530C3B994F8B3
:10554C004410A9B90123134A84F844309068124AD4
:10555C0052F82020C2F30310042815D80F4902F08A
:10556C000F0251F82010934009480B61FEF7E2F945
:10557C00D7F804D02437BD46BDE8F08F0022BA60BE
:10558C0061E7C9F81090FFDE0961FCE7C0FC9B01E4
:10559C000410002098080108C008010860060020CB
:1055AC0080F89D10704713B50191416D0268009110
:1055BC00546A0022036D1146A04702B010BD0000D2
:1055CC002DE9F74F4FF00108DDE90C9A0446164619
:1055DC000D469B46076880F84580CDF800A03F6AD1
:1055EC00B847236806EB0902CDF800A029461F6ACC
:1055FC0020465B46013AB84723684644A9F10209A4
:10560C00CDF800A0294632462046DF694B46B84704
:10561C00236805EB0B01CDF800A0DD6932464B4643
:10562C0020460139A84794F8463084F84530C3B970
:10563C0094F84420AAB90D4B84F8448099680C4B1B
:10564C0053F82130C3F3031104290DD8094A03F090
:10565C000F0352F8212008FA03F307481361FEF7F1
:10566C0069F903B0BDE8F08F1261FFDE98080108FC
:10567C00C00801086006002004100020C0E92212B6
:10568C007047C0E9031170472DE9F74F01934FF6AE
:10569C00FF73C0E91633DFF8BC916F4ED9F80430B4
:1056AC00144656F823300D46C3F30312042A00F2B5
:1056BC00CE806A4F03F00F0357F82210012202FA32
:1056CC0003F31B0490F825B090F826A00B612A2355
:1056DC00634964480B700A2303F06BF8624BDFF8E4
:1056EC008C811A68624BD8F80410B2FBF3F2D8F82C
:1056FC0004305B1A9A42FADCD9F8043056F82320AD
:10570C00C2F30313042B00F2A28001990BEB0500EA
:10571C002944013959444FF0010B57F8233002F05A
:10572C000F024F4D0BFA02F21A6103122B700B127F
:10573C0004226870AB70E9700A232946494803F0CB
:10574C0038F8D9F8043056F8232002F00F03C2F3CE
:10575C0003120BFA03F3042A4FEA034377D857F8E2
:10576C002220294613612B235A462B703D480A23CD
:10577C0003F01FF83C4BD8F804101A683C4BDFF8C8
:10578C00EC80B2FBF3F2D8F804305B1A9A42FADCE4
:10579C00DFF8C090D9F8043056F82330C3F3031067
:1057AC00042854D80C9A0AEB04011444013CA2447A
:1057BC00012457F8202003F00F0304FA03F31361BC
:1057CC000B122B704FEA2A2304226970AB70244908
:1057DC000A23244885F803A002F0EBFFD9F8043023
:1057EC0056F8232002F00F03C2F3031204FA03F35A
:1057FC00042A4FEA03432AD857F822201849136188
:10580C002E2322462B7017480A2302F0D2FF164B88
:10581C00D8F804101A68164B1448B2FBF3F243681C
:10582C005B1A9A42FBDC0B4B5B6856F82330C3F3D4
:10583C000312042A0BD8094903F00F0351F8221064
:10584C00012202FA03F30B6103B0BDE8F08F0023D1
:10585C001B61FFDE98080108C008010860060020E3
:10586C00A40F0020AC0F002074060020001000E0F4
:10587C0040420F000448D20002F4FC6242EAD30218
:10588C0000EA01201043704700F8FFFF2DE9F04FAC
:10589C00044690F8850087B0002840F0D380656FEF
:1058AC00636E0D449D42C0F2CD80A66FA36E16446C
:1058BC009E42C0F2C780E36E9D4280F2C380236F8C
:1058CC009E4280F2BF8094F84580B8F1000F1BD047
:1058DC0094F8441084F84500B1B90123604A84F867
:1058EC00443090685F4A52F82020C2F30310042819
:1058FC0000F2AE805C4902F00F0251F82010934088
:10590C005A480B61FEF716F8237A23B1584A92F8DD
:10591C005130032BFBD094F84430DFF84891DFF87A
:10592C0040A1DFF844B10BB3524B002704934FF066
:10593C0001038DF81670ADF8143006AB13E90E00A8
:10594C004A4884F84470FDF7B3FFDAF8083059F888
:10595C002330C3F30312042A7CD8012103F00F0374
:10596C005BF8222001FA03F31B0413610127324672
:10597C003B46294620460097FFF786FE3A46002113
:10598C003A48FEF7B9FE3A4600213848FEF7B4FE15
:10599C003A46054600213548FEF7AEFE3A46064625
:1059AC0000213248FEF7A8FE32460346294620461F
:1059BC00FFF760FFDAF80830054659F82330C3F3D7
:1059CC000312042A48D85BF8222003F00F0394F842
:1059DC00451007FA03F3136141B994F8441099BBCD
:1059EC0084F8447021481361FDF7A4FFB8F1000F4F
:1059FC0024D094F84430F3B1002701261E4BADF8A7
:105A0C00146004938DF8167006AB13E90E0017485A
:105A1C0084F84470FDF74CFFDAF8083059F823305D
:105A2C00C3F30312042A15D803F00F035BF82220EA
:105A3C009E4036041661012384F84530284607B091
:105A4C00BDE8F08F0025F9E7B8F1000FD4D1F5E7E8
:105A5C000961FFDE3F61FCE700231B61F9E700BF32
:105A6C0098080108C00801086006002004100020F6
:105A7C00AC0F0020002D3101C0FC9B0190F8A03030
:105A8C0002460BB988B270470B0603D4002380F88A
:105A9C002030F7E790F8200098B901F0E003C02B14
:105AAC0007D18B0103F4F8635384012382F820306F
:105ABC00704701F0F003E02BE4D109030223518479
:105ACC00F4E70228B2F9223009D1890101F47C6192
:105ADC00194301230020518482F82030704701F0D3
:105AEC003F01194388B200235084DFE7F0B590F8EA
:105AFC00853004460F4685B04BB9FFF7BFFF06460D
:105B0C0028B10D2F03D00A2804D01F2803D8012058
:105B1C0005B0F0BD2026D4F8A820002A50D1237F50
:105B2C00022B17D17F2EF2D81022554B334413F889
:105B3C00203C063303F4FC73617F0A2F01FB02F552
:105B4C000ED10023D4F88C202A44C4F88C20C4F83D
:105B5C008830DCE7012B06BF082206231346EBE74F
:105B6C0094F89B208AB1D4F88820204601FB0327A7
:105B7C0023685B6B9847874207DD0023D4F88C20A1
:105B8C00C4F888302A44C4F88C2094F89C3053B163
:105B9C00236820461B6BD4F88C509847A842DCBF76
:105BAC000023C4F88C30227F236800929D6A314612
:105BBC00D4E922232046A847D4F888300344C6E70A
:105BCC000A2F0BD10023C4F88830127BD4F88C3008
:105BDC00617F02FB0133C4F88C3098E75389B342E0
:105BEC0095D31589AE4292D353680C22751BADB276
:105BFC0002FB05352B79002B3BD06A79002A38D073
:105C0C0094F89B20D2B195F90770627F1F44D4F8A9
:105C1C008830204602FB073723685B6B9847874226
:105C2C000CDD0023C4F88830D4F8A830617F1A7BCF
:105C3C00D4F88C3001FB0233C4F88C3094F89C30CF
:105C4C0053B1236820461B6BD4F88C70984787425D
:105C5C00A4BF0023C4F88C30627F236802922269AF
:105C6C0020460192E26800925F69D4E92212334621
:105C7C00B847AA79617FD4F8883001FB023366E714
:105C8C0024020108232970B504460FD901F0C00382
:105C9C00C02B27D1C92925D8134B01F03F0053F84D
:105CAC002000124B53F8203001331BD000230C255D
:105CBC0005FB03F6A65FD8B2B1420DD00133042B1D
:105CCC00F6D1012A0CD100230C2505FB03F2A65EAC
:105CDC00D8B2013601D1A15270BD0133042BF4D1DD
:105CEC001846F9E70420F7E798080108C0080108EE
:105CFC0070B503464FF6FF7201250024104E00F1DB
:105D0C0030011A805E601D725C720C338B42F8D1CC
:105D1C0002860C4A0C4B916953F82110C0F8901074
:105D2C00D169526953F82110C0F8941053F82230FD
:105D3C00C0F898304FF0FF33C0F89C3070BD00BFF6
:105D4C0000093D0098080108C008010870B501223F
:105D5C0005460E46FFF796FF032804461BD8232E54
:105D6C000BD0D5F89C30013307D10121304605F01A
:105D7C00F1F90121304605F051FA0C20002300FB0B
:105D8C00045485F88530627A237A616805F1340011
:105D9C0000F0EEF82E8670BD82B0F8B506AC84E843
:105DAC000C00012205460E46FFF76CFF0328044643
:105DBC0023D80C2707FB0057079BBDF820207B60DE
:105DCC009DF82230232E3A81BB720BD0D5F89C3033
:105DDC00013307D10121304605F0BCF901213046D1
:105DEC0005F01CFA0C2000FB04547968237A627AC3
:105DFC0005F1340000F0BCF82E86BDE8F84002B086
:105E0C00704700002329F0B51AD803464FF6FF74EB
:105E1C0001260027134D00F13002B3F900C00C33FA
:105E2C008C4501BF23F80C4C43F8085C03F8046C58
:105E3C0003F8037C9342F0D14FF6FF730386F0BD59
:105E4C0001F0C003C02BF7D1C929F5D8064B01F0DE
:105E5C003F0253F82220054B53F822300133D4D1A2
:105E6C00EAE700BF00093D0098080108C0080108D6
:105E7C002DE9F04186B08DF80F20002204460D4626
:105E8C001F468DF81720FFF7FDFE0328064604D9A0
:105E9C009DF8170006B0BDE8F081B4F9303004F17C
:105EAC0034089D4209D00C2000FB0640037A427A4C
:105EBC004168404600F05CF82586232D07D0D4F8C5
:105ECC009C30013303D10021284605F0A7F90C20A2
:105EDC0000FB0646B37A404601934FF47A730DF1FA
:105EEC00170200930DF10F01012300F071F9232D1E
:105EFC00CED0012FCCD1D4F89C300133C8D1394647
:105F0C00284605F08BF9C3E70148FFF7F1BE00BF47
:105F1C000410002091FAA1F3B3FA83F370B50D0EBF
:105F2C000F2691FAA1F1B1FA81F144599B0006FABE
:105F3C0003F3890024EA030402FA01F121434151DD
:105F4C0070BD00000346074A10684BB1064A9342E5
:105F5C0001D102F057BA054A934201D102F042BA7C
:105F6C00704700BF7406002000300140003800402C
:105F7C002DE9F74F0D46174698460446002800F0C9
:105F8C00D3808A49006E04F0D2FA89498146E06DCB
:105F9C0004F0CDFA87498246606E04F0C8FA86494F
:105FAC000646A06E04F0C3FA8346B9F1000F00F068
:105FBC00BB80BAF1000F00F0B780002E00F0B48067
:105FCC005146484604F0DAFA59468246304604F007
:105FDC00D5FA01468146504604F0D0FAA065BAF1D4
:105FEC00000F00F0A180B9F1000F00F09D80002897
:105FFC0000F09A80A36E20605A1C14BF4FF48023CB
:10600C004FF40073A3614FF482736360FFF79AFF40
:10601C00B5EB500FC0F08B800023002617F0FD0F5E
:10602C00E3610CBF33460123022F636134BF334657
:10603C00022323610723B045E36214BF3346802358
:10604C005A49C4E90836206EA660A662E66004F0E0
:10605C004FFA5749E06D04F04BFA5649606E04F064
:10606C0047FA2369B342636E08BF0225C3F30312D8
:10607C0018BF0125042A8CBF3046504903F00F038A
:10608C0098BF51F822004E4A022D52F8231091FA73
:10609C00A1F24FEA1163C658B2FA82F34FEA8302B7
:1060AC004FF00F0303FA02F391FAA1F2B2FA82F263
:1060BC0003EA06034FEA820223FA02F34FEA1125A0
:1060CC0054D0042B02D10822FFF724FFC26801230D
:1060DC0022EA050295FAA5F5B5FA85F503FA05F558
:1060EC001543C5603449A06E04F002FA2368354AA2
:1060FC00934244D1344B9A6942F480529A619A6922
:10610C0002F480520092009ADA6842F48052DA600B
:10611C00DA6822F48052DA60204602F0F2FA226841
:10612C00136843F04003136003B0BDE8F08FB5EB88
:10613C00900F01D3082370E7B5EBD00F01D31023D8
:10614C006BE7B5EB101F01D3182366E7B5EB501FB7
:10615C0001D3202361E7B5EB901F01D328235CE723
:10616C00B5EBD01F2CBF3023382356E7042B02D1BC
:10617C000822FFF7CFFEC36823EA0505B1E7134AEF
:10618C009342C9D1104BDA6942F48042DA61DA6980
:10619C0002F480420192019A1A6942F480421A6117
:1061AC001A6922F480421A61B6E700BFD0040108D4
:1061BC00A004010800050108300501086006002054
:1061CC001803010800300140001002400038004064
:1061DC002DE9F047DDF820800C4615461E469DF84B
:1061EC00249073B1B8F1000F2CD0076800F028FB95
:1061FC0082462644A6420BD10020BB681B06FCD469
:10620C0004E0B8F1000F0CBF01200220BDE8F087BC
:10621C00BB689907FCD514F8013B3B73B9F1000F2F
:10622C0005D1BB68DA07FCD53B7B05F8013BB8F11F
:10623C00FF3FDFD000F004FBA0EB0A004045D9D3B0
:10624C000120DAE70120E1E710B50446002104F053
:10625C0081FF2046BDE81040012104F0DFBFC0E9FA
:10626C00001283600122002310B5C0E9033380F8CB
:10627C0021304261038310BDB0F91C007047B0F9A6
:10628C001E00704702298CBF0023044B827E98BFEE
:10629C005B5C1A4214BF0120002070478402010885
:1062AC0038B50546FFF7EEFF50B102298CBF00232D
:1062BC00044B6A7E98BF5B5C1A420CBF0120002025
:1062CC0038BD00BF8402010838B50446206804F0CC
:1062DC00E1FF0028FAD1606804F0DCFF0546206875
:1062EC0004F0D8FF0028FAD0284638BDF8B504468B
:1062FC0005F00EF806462068FFF7A6FF6068FFF76A
:10630C00A3FF1B4B1B4A1B681B49B3FBF2F3322246
:10631C00534348684A68121A9342FBDC206804F025
:10632C00B9FF054630B104F0F3FF831B642BF5D99C
:10633C00002617E0206804F0ADFF0028FAD00026F4
:10634C0001272046FFF7C0FF07FA05F3DBB258B16F
:10635C001E430135082DF4D12046FFF7B5FF20462A
:10636C00FFF7B2FF3046F8BD26EA0306F1E700BF9F
:10637C007406002040420F00001000E010B50C46DF
:10638C00FFF7B4FF00B20CB160F0FF0010BD08B510
:10639C00FFF7ACFF030746BF60F00F00C0B200F080
:1063AC000F0040B208BD10B50C460121204604F088
:1063BC00D1FE2046BDE81040002104F02FBF0000A4
:1063CC002DE9F0410D46044604F0A2FF4D4F064660
:1063DC006068FFF739FF2068FFF736FF4A4A3B68D1
:1063EC00DFF82881B3FBF2F34FF496725343D8F8DD
:1063FC000410D8F80420521A9342FADC2168204683
:10640C00FFF7D1FF404A3B68D8F80410B3FBF2F316
:10641C004FF496725343DFF8F480D8F80420521AE4
:10642C009342FADC20466168FFF7BDFF364A3B68B1
:10643C00D8F80410B3FBF2F30A22534333484268F2
:10644C00521A9342FBDC2068FFF7FEFE206804F032
:10645C0021FF58B104F05CFF801B6328F6D96068FB
:10646C00FFF7F2FE01232376BDE8F0810826012711
:10647C00207615F0010861683BD00846FFF7E4FE72
:10648C00206804F007FF0028FAD0206804F002FF0F
:10649C000028FAD1013E16F0FF0688EA07074FEAFA
:1064AC006505E6D1616847B30846FFF7CDFE206865
:1064BC0004F0F0FE0028FAD0206804F0EBFE00286F
:1064CC00FAD16068FFF7C0FE606804F0E3FE0028B4
:1064DC00FAD1206804F0DEFE0028FAD1206804F01E
:1064EC00D9FE0028C0D1606804F0D4FE0028F5D095
:1064FC00BAE72046FFF757FFC2E72046FFF753FFE6
:10650C00D5E700BF7406002040420F00001000E0E9
:10651C0038B50446F221FFF753FF2046FFF7E6FE9D
:10652C0005462046FFF7E2FE284638BD036910B544
:10653C0004463BB9F421FFF743FF2046FFF7D6FE94
:10654C000123236110BD436910B504463BB9F52105
:10655C00FFF736FF2046FFF7C9FE0123636110BD2C
:10656C0038B583680446022B0D4601D1FFF7EBFFCB
:10657C0029462046FFF724FF2046FFF7B7FEA36805
:10658C00022B02D12046FFF7D1FFE36863B1074B22
:10659C00074A1B680749B3FBF2F36422534348686C
:1065AC004A68121A9342FBDC38BD00BF7406002007
:1065BC0040420F00001000E010B5F0210446FFF738
:1065CC00CFFF0123A36010BD836870B5022B044676
:1065DC000E46154602D10AB9FFF7B5FFF321204646
:1065EC00FFF7EEFE2046FFF781FE31462046FFF70F
:1065FC00E7FE2046FFF77AFEA368022B03D115B9FC
:10660C002046FFF793FF074B074A1B680749B3FB6C
:10661C00F2F36422534348684A68121A9342FBDC33
:10662C0070BD00BF7406002040420F00001000E057
:10663C0010B50446837EEB214376FFF7C1FE20465E
:10664C00FFF754FE2046FFF751FEC0F30011A07671
:10665C002046FFF793FEA17EA083C1F34011204694
:10666C00FFF78CFE94F82130E0832BB12046FFF726
:10667C008EFE84F8200010BD84F82030FBE700006B
:10668C0010B504460068FFF7DFFD6068FFF7DCFD1E
:10669C004FF4FA7004F03EFEFF212046FFF790FE07
:1066AC00237E002B3ED12046FFF720FEFC2803D191
:1066BC0001236520237610BD2046FFF717FE01222B
:1066CC00C8212046FFF780FF012264212046FFF7F6
:1066DC007BFF012250212046FFF776FF2046FFF773
:1066EC0017FFA36884F82100012B204617D1FFF770
:1066FC0063FF0D4B0D4A1B680D49B3FBF2F364228B
:10670C00534348684A68121A9342FBDC0123204623
:10671C00E360FFF78DFFA37E00206376CBE7FFF7E6
:10672C0005FFE6E76420C6E77406002040420F0030
:10673C00001000E038B505460A242846FFF7A0FFF4
:10674C0008B1013CF9D138BD03460A4910B50868B7
:10675C000344EFF30882934205D90C224FF0FF302B
:10676C00054B1A6010BD054A054C121B9342F4D21E
:10677C000B60F7E754060020581C00200050002046
:10678C00000400004FF0FF3070474FF4005300201E
:10679C004B60704701207047002070470020704705
:1067AC00FEE700001622024B4FF0FF301A607047D4
:1067BC00581C0020012070477047000038B50E4B64
:1067CC00054618784FF47A73B3FBF0F30B4A106854
:1067DC00B0FBF3F000F0FCFB044658B90F2D09D8C0
:1067EC00024629464FF0FF3000F09EFB2046044B3A
:1067FC001D6038BD0120FCE75806002074060020FF
:10680C005C060020074A08B51368032043F0100308
:10681C00136000F077FB0020FFF7D0FFFFF7CCFFF1
:10682C00002008BD00200240034A044B11681B786D
:10683C000B441360704700BFA410002058060020C2
:10684C00014B1868704700BFA4100020F7B5002654
:10685C0004460D460196FFF7F3FF236807469A6836
:10686C00D20508D50120A36A84F8246043F02003E4
:10687C00A36203B0F0BD5A68D60503D4DB6A13F4E7
:10688C00700F3FD0414B02201E6801F063FE23685D
:10689C003F4A1969B6FBF0F611423E4A53D1D8680B
:1068AC003D4908424FD1196911425DD1DA683B4B21
:1068BC001A4214BF292314235E43019BB34225D2F1
:1068CC006A1C5CD0002D55D1019BB34257D2A36AF0
:1068DC0043F00403A36200230BE0681C13D065B9DA
:1068EC0023681B6813F002030CD1A26A42F0040265
:1068FC00A262032084F82430BBE7FFF7A1FFC01B82
:10690C00A842EDD8226813689907E6D56FF01203F8
:10691C0022681360A36A43F40073A362936803F4C0
:10692C006023B3F5602F2ED1207B00282BD1A36AD6
:10693C0023F48073A362A36ADB0424D4A36A43F018
:10694C000103A36295E71969114203D1D968134A6F
:10695C0011420BD01969124A114209D1DB6813425A
:10696C0014BFFC235423A7E72923A5E75423A3E74B
:10697C00FC23A1E7FFF764FFC01BA842A4D8019B2E
:10698C000133019399E7002073E700BF74060020E0
:10699C0024499224922449122449920092244900B9
:1069AC00499224000368D86C70470000002373B52B
:1069BC00019390F824300446012B6CD0012380F80D
:1069CC0024304D680268062D086805EB850322D833
:1069DC001F26556B053B9E4025EA060500FA03F37E
:1069EC002B43536309288B6800EB40054FF00701DC
:1069FC0029D9D6681E3DA94026EA0101AB400B43BC
:106A0C00D360A0F11003012B25D90020002384F8BA
:106A1C00243002B070BD0C2D4FF01F0509D8166B39
:106A2C00233B9D4026EA050500FA03F32B43136331
:106A3C00D8E7D66A413B9D4026EA050500FA03F3E8
:106A4C002B43D362CEE71069A94020EA0101AB4089
:106A5C000B431361D9E7114B9A4216D193681B0271
:106A6C00D3D49368102843F400039360CDD10C4B1E
:106A7C000C4A1B68B3FBF2F30A2253430193019BAC
:106A8C00002BC2D0019B013BF8E7A36A012043F025
:106A9C002003A362BAE70220BBE700BF0024014039
:106AAC007406002040420F00806A7047002337B5FF
:106ABC000193036804469A68D20702D5002003B0FC
:106ACC0030BD9A6842F001029A60144B144A1B685C
:106ADC00B3FBF2F30193019BE3B9FFF7B1FE05465B
:106AEC0023689B68DB07E9D4FFF7AAFE401B02284A
:106AFC00F6D923689B6813F00103F1D1A26A012037
:106B0C0042F01002A262E26A84F8243042F00102E0
:106B1C00E262D4E7019B013BDCE700BF7406002076
:106B2C0040420F0010B590F824300446012B54D08D
:106B3C00012380F82430FFF7B9FF002849D1A36A5C
:106B4C00274A23F4407323F0010343F48073A362B8
:106B5C002368934204D123494A6812F4702F2ED132
:106B6C00A26A22F48012A2625A68520541BFA26A3C
:106B7C0022F4405242F48052A262A26A12F4805271
:106B8C001CBFE26A22F00602E262002284F8242092
:106B9C006FF002021A609A6802F46022B2F5602F5C
:106BAC0013D10F4A934205D1A2F58062526812F4B8
:106BBC00702F0AD19A6842F4A0029A6010BDA26AA2
:106BCC0042F48012A2624A68CFE79A6842F48012BB
:106BDC00F3E7002384F82430F0E70220EEE700BF4F
:106BEC00002801400024014038B5036804469A6827
:106BFC00D10701D4002038BD9A6822F001029A60B6
:106C0C00FFF71EFE054623689B68DB07F2D5FFF7EE
:106C1C0017FE401B0228F6D923689B68DA07F2D5C9
:106C2C00A36A012043F01003A362E36A43F001035B
:106C3C00E362E0E7F8B5044600286ED0836A23B916
:106C4C00C36280F8243003F0EBFF2046FFF7CCFF43
:106C5C00A36A13F0100362D1002860D1A26AE5691F
:106C6C00616822F4885222F0020242F002022943A7
:106C7C00A568A262227BB5F5807F41EA420137D03C
:106C8C00012D14BF00274FF48077267D012E06D1ED
:106C9C0082BBA269013A47EA423646F40067226891
:106CAC00B5F5807F566826F4694646EA07065660B5
:106CBC0097681D4E06EA070646EA0106966001D063
:106CCC00012D02D12369013B1B05D56A25F4700502
:106CDC002B43D3629268154B1340994213D1002376
:106CEC00E362A36A23F0030343F00103A362F8BD3C
:106CFC002F46CAE7A26A42F02002A262E26A42F080
:106D0C000102E262CBE7A36A23F0120343F0100303
:106D1C00A362E36A43F00103E3620120E7E7A36A9D
:106D2C0043F01003A362F8E7FDF7E1FFFE0E1FFF2F
:106D3C0038B50446002850D0836A43F002038362BE
:106D4C00FFF752FF0546002842D16FF01F0223685F
:106D5C0023481A605968234A0A405A609968224AA3
:106D6C000A409A60DA6802F07F42DA601A6902F02F
:106D7C0040421A6159691D4A114059619969114083
:106D8C009961D9691140D961196A11401962596A1E
:106D9C0011405962996A0A409A62DA6A02F07F429B
:106DAC00DA62DA6A02F07F42DA621A6B02F040426F
:106DBC001A635A6B02F040425A63996B0140996313
:106DCC009A6B02409A63204603F05CFFE562A56271
:106DDC00002384F82430284638BD0125FBE700BF8A
:106DEC000000C0FF00003FFFF00601FF00F0FFFFB6
:106DFC0010B590F824300446012B11D0012380F8F3
:106E0C002430FFF7F1FE38B9A36A23F4885323F03A
:106E1C00010343F00103A362002384F8243010BD66
:106E2C000220FCE7002373B5019390F8243004464C
:106E3C00012B62D0012380F82430FFF7D5FE0546E4
:106E4C00002832D1A36A022023F4885323F00203D2
:106E5C0043F00203A3622A4B1E6801F07BFBB6FBD6
:106E6C00F0F676000196019B1BBB2046FFF71EFE39
:106E7C002268936843F008039360FFF7E1FC064631
:106E8C0023689A68110718D49A6842F004029A6031
:106E9C00FFF7D6FC064623689B685B0723D4A36ADE
:106EAC0023F0030343F00103A362002384F824308E
:106EBC0016E0019B013B0193D5E7FFF7C1FC801B5A
:106ECC000A28DDD923689B681807D9D5A36A012540
:106EDC0023F0120343F01003A362002384F8243040
:106EEC00284602B070BDFFF7ABFC801B0A28D2D934
:106EFC0023689B685A07CED5E8E70225F0E700BF68
:106F0C007406002007490302CA6803F4E06322F404
:106F1C00E0621204120C134343F0BF6343F40033DA
:106F2C00CB60704700ED00E0164B30B5DC68C4F365
:106F3C000224C4F10703251D042B28BF0423062DAE
:106F4C004FF0FF3598BF002405FA03F388BF033CCC
:106F5C0021EA0303A34005FA04F422EA0402002800
:106F6C0043EA0203ACBF00F16040074A4FEA031347
:106F7C00DBB2ABBF00F5614000F00F0080F80033CE
:106F8C00135430BD00ED00E014ED00E0002808DBE8
:106F9C000123420900F01F0003FA00F0014B43F8F3
:106FAC002200704700E100E000280DDB01224309BC
:106FBC0000F01F0002FA00F0044A203342F82300CC
:106FCC00BFF34F8FBFF36F8F704700BF00E100E03E
:106FDC000138B0F1807F0BD24FF0E023F021054A4D
:106FEC00586182F823100020072298611A617047BB
:106FFC000120704700ED00E0002809DB0122430965
:10700C0000F01F0002FA00F0024A603342F823003D
:10701C00704700BF00E100E0704708B5FFF7FCFFC8
:10702C0008BD90F82130022B06D004238363002383
:10703C0080F820300120704703681A6822F00E0295
:10704C001A601A6822F001021A600123D0E90F219C
:10705C008B4053604FF48073038400207047000012
:10706C0008B590F82130022B03D004238363012050
:10707C0008BD03681A6822F00E021A601A6822F022
:10708C0001021A60174A93421CD0143293421BD04F
:10709C00143293421AD0143293421AD014329342BF
:1070AC001AD0143293420CBF4FF480134FF08073FC
:1070BC000D4A53604FF480730384436B7BB1984744
:1070CC000020D5E70123F3E71023F1E74FF4807399
:1070DC00EEE74FF48053EBE74FF48033E8E71846C4
:1070EC00C6E700BF080002400000024070B404254F
:1070FC00C66B026C3468036895402542196832D01F
:10710C004D0730D51A6896065EBF1A6822F0040245
:10711C001A603D4A934219D01432934218D014325B
:10712C00934217D01432934217D01432934217D093
:10713C00143293420CBF4FF480034FF08063334AF8
:10714C005360C36A002B5CD070BC18470423F6E76D
:10715C004023F4E74FF48063F1E74FF48043EEE70C
:10716C004FF48023EBE702259540254235D08D075F
:10717C0033D51A68940606D41A6822F00A021A60EB
:10718C00012280F82120204A934219D014329342D4
:10719C0018D01432934217D01432934217D01432B1
:1071AC00934217D0143293420CBF4FF400134FF09C
:1071BC000073164A5360002380F82030836AC1E7BD
:1071CC000223F6E72023F4E74FF40073F1E74FF4C2
:1071DC000053EEE74FF40033EBE7082595402542CA
:1071EC000FD009070DD5196821F00E011960012384
:1071FC0003FA02F2726083634FF480730384036BAF
:10720C00A0E770BC704700BF0800024000000240BD
:10721C00044A08B55169014202D0506103F030FEB6
:10722C0008BD00BF00040140F0B5044687B010B3A0
:10723C0090F8A93203F0FF021BB980F8A82205F0E0
:10724C00D3FC032325466E4684F8A93255F8100B5F
:10725C0002F025F90FCD0FC62B68271D336026468B
:10726C0097E80E0056F8100B02F009F9054620B10C
:10727C00022384F8A93201254CE00146206802F073
:10728C0018F929464FF0010E28250846D4F804C0F9
:10729C00CAB2944501F101011BD8002328251946D7
:1072AC00D8B2844503F1010320D8EC4635460FCD06
:1072BC00ACE80F002B68CCF8003097E80E00206883
:1072CC0002F0F9F801230546E8B1022284F8A9225C
:1072DC00D1E705FB0243C3E90E0083F829E083F8EC
:1072EC002820DA8683F82B001864D1E705FB0042CE
:1072FC00C2E95E1182F8691182F8680182F86B119B
:10730C00C2F88011CCE784F82400206884F8A932F4
:10731C0002F064FB284607B0F0BD38B590F8A832EF
:10732C000446012B10D0012580F8A852006802F009
:10733C00ADF82946204600F0E1FD206802F04CFB38
:10734C00002084F8A80238BD0220FCE710B590F8A4
:10735C00A8220446012A0BD0012280F8241080F8C0
:10736C00A822006802F032FB002084F8A80210BDAD
:10737C000220FCE72DE9F04F044685B0006802F0CE
:10738C002FFB010409D5DFF80C93DFF80C83206880
:10739C00B0F844301D0400F1C180206802F020FBDD
:1073AC0042050FD522682046B2F8443023F480639E
:1073BC001B041B0CA2F8443005F083FC0021204672
:1073CC00FFF7C4FF206802F00BFB410408D52268CC
:1073DC00B2F8443023F480431B041B0CA2F8443055
:1073EC00206802F0FDFA820408D52268B2F8443015
:1073FC0023F400531B041B0CA2F84430206802F049
:10740C00EFFAC3041CD522682046B2F8403023F0B2
:10741C0004031B041B0CA2F84030B2F8403023F0DC
:10742C0008031B041B0CA2F8403005F067FC226813
:10743C00B2F8443023F480531B041B0CA2F84430E4
:10744C00206802F0CDFA070546D568462368064643
:10745C0019461A4603F1200532F8047B954226F8AA
:10746C00027BF9D1B3F8402092B242F00102A3F8AA
:10747C004020B3F8402022F001021204120CA3F8B1
:10748C004020B3F844205605FBD5B3F8442022F431
:10749C0080621204120CA3F8442030F8022B21F85D
:1074AC00042B8D42F9D1B3F84020204692B242F021
:1074BC000802A3F84020B3F8442022F4006212041E
:1074CC00120CA3F84420B3F8402092B242F004020C
:1074DC00A3F8402005F002FC206802F081FA820536
:1074EC000BD522682046B2F8443023F400731B04F9
:1074FC001B0CA2F8443005F0E0FB206802F070FA97
:10750C00C30508D52268B2F8443023F480731B04F9
:10751C001B0CA2F8443005B0BDE8F08FB0F8446005
:10752C00B1B216F00F0640F0C18011F010012DD150
:10753C0003889BB203EA090343F400430380B0F8C9
:10754C00503094F828209BB203EBC20300EB4300AD
:10755C00B0F80434E26BC3F3090363641344E363CC
:10756C00204605F0A2FB94F82430002B3FF40FAF1B
:10757C00226C002A7FF40BAF94F82430216843F07E
:10758C008003A1F84C3084F8242000E70588ABB2C6
:10759C0015F4006521D0B0F8503094F868219BB2F6
:1075AC0003EBC20300EB4303B3F80C34B4F86E21C5
:1075BC00C3F30903C4F8843104F52C7102F0B4FC54
:1075CC0022682046138823F070031B051B0D43F023
:1075DC008003138005F05AFBD9E61B047FF5D7AE68
:1075EC00038823F070031B051B0D43F080030380FD
:1075FC00B0F8503094F868219BB203EBC20300EB57
:10760C004303B3F80C34C3F30903C4F884318BB1CE
:10761C00D4F87C1171B1B4F86E2102F085FCD4F869
:10762C007C31D4F88421294613442046C4F87C319B
:10763C0005F032FB21680B881F053FF5A8AEB1F8A9
:10764C005030D4F878519BB201F20C40CDB9C25AEB
:10765C0022F4F8421204120CC252C25A92B242F4F0
:10766C000042C2520B8823F4804323F070031B04A6
:10767C001B0C83F4405343F4004343F080030B8012
:10768C0085E63E2D0AD86A08EE0748BF0132920201
:10769C0092B2E6E70F8FFFFF0080FFFF6A09ED064D
:1076AC0008BF02F1FF3248EA8222F1E730F82630B7
:1076BC0019049FB240F1EE80282130F8263001FBEE
:1076CC00064123F070031B051B0D43F0800320F8CB
:1076DC00263091F8743100F5806CB3B9B0F85030A5
:1076EC0091F868219BB2063303EBC2033CF81350AC
:1076FC00C5F30905002D00F0B1802B46B1F86E21C1
:10770C00D1F87C1102F010FCA8E091F86B2191F8F3
:10771C006831022A40F08180B0F8505017F4804A4A
:10772C00D1F880214FEAC30BADB207F0400E3BD02D
:10773C00AB440BF1020B3CF81B50C5F30905954209
:10774C0013D90022C1F8802130F8232022F4804282
:10775C0022F070021204120C82F4005242F4004225
:10776C0042F0800220F8232004E0521BC1F8802153
:10777C00002AE9D0BEF1000F0DD030F8232022F4FE
:10778C00E04222F070021204120C42F4004242F069
:10779C00C00220F82320002D60D0282101FB0641D7
:1077AC002B46B1F87021ABE75D4406353CF815501B
:1077BC00C5F30905954212D9C1F880A130F82320F0
:1077CC0022F4804222F070021204120C82F4005255
:1077DC0042F4004242F0800220F8232004E0521BC5
:1077EC00C1F88021002AE9D0BEF1000F0DD130F88C
:1077FC00232022F4E04222F070021204120C42F414
:10780C00004242F0C00220F823203DB3282101FBA6
:10781C0006412B46B1F8722172E730F8232022F48E
:10782C00E04222F070021204120C42F4004242F0C8
:10783C00C00220F8232091F8683130F82320DB00B7
:10784C0012F4804FB0F8502092B256D0023213444A
:10785C003CF81350C5F30905002DA1D12821714323
:10786C006318D3F884212A44C3F88421D3F87C21EB
:10787C002A44C3F87C21D3F880211AB1D3F878318B
:10788C009D4243D2282303FB0643204693F86811FC
:10789C0005F002FA3A067FF57AAD2825206805FB3B
:1078AC00064530F826309BB203EA090343F4004343
:1078BC0020F8263095F82B3095F82810032B04D09F
:1078CC001BB1022B3AD1FB0538D42825B0F8503027
:1078DC0005FB06429BB2023303EBC10300EB4303EF
:1078EC00B3F800C4176CCCF3090C674515D800230A
:1078FC001364204605F0D9F949E5063213443CF8E7
:10790C001350C5F30905002DA8D082E701F5B47119
:10791C002068214402F07AF8BCE7A7EB0C07176447
:10792C00002FE6D006FB0555D16B536C61446344C4
:10793C00D1635364611902F069F828E5282303FB2D
:10794C000643B0F850C04FEAC10A1FFA8CFC17F07E
:10795C0040021B6C00F5806ED44407F4804700F0A5
:10796C00E4800CF1020C3EF81CC02822CCF3090C6C
:10797C009C4528BF002302FB064238BFA3EB0C0337
:10798C001364BFB2002B51D195F82920002A3AD1AB
:10799C00B0F850600B01B2B200F204461644F25A31
:1079AC0022F4F8421204120CF252F25A92B242F43D
:1079BC000042F252B0F8502000F20C4092B2104447
:1079CC00C25A22F4F8421204120CC252C25A92B297
:1079DC0042F40042C252204605F067F9002F00F035
:1079EC00E28095F82810226832F8213023F4E04325
:1079FC0023F070031B041B0C43F4404343F080033F
:107A0C0022F82130CFE0012AE5D1B0F850600A010C
:107A1C001FFA86FC00F204466644B352B0F850607C
:107A2C0000F20C40B6B230448352D4E76FB130F858
:107A3C00213023F4E04323F070031B041B0C43F4AC
:107A4C00404343F0800320F82130282303FB0643F6
:107A5C0093F84C20012A40F0A680DA6BD3F848E06A
:107A6C0002EB0C075A6CDF6362445A649A6B9645BE
:107A7C0029D3AEEB020EC3F848E095F829C093B2B7
:107A8C00BCF1000F44D1B0F850C000F2044E1FFA04
:107A9C008CFCF44409011ABB3CF8012022F4F84296
:107AAC001204120C2CF801203CF8012092B242F482
:107ABC0000422CF80120282101FB0646328E394663
:107ACC0001F094FF6FE0BEF1000F03D1624683F822
