:100000000C94AD070C94771D0C94501D0C94291D75
:100010000C94021D0C94D5070C94D5070C94DB1C92
:100020000C94D5070C94D5070C9495190C94041ACC
:100030000C949E1D0C94D5070C94D5070C94D507F1
:100040000C94D5070C94D5070C94D5070C94D507C0
:100050000C94D5070C94D5070C94D5070C94911CDF
:100060000C94D5070C94D5070C94D5070C94D507A0
:100070000C94D5070C94D5070C94D5070C94D50790
:100080000C94361C0C94D5070C94D5070C94D5070A
:100090000C94D5070C94D5070C94D5070C94D50770
:1000A0000C94D5070C94D5070C94D5072D2D4761DA
:1000B0006D65206F7665722D2D0028632941697268
:1000C00072722872290020202020746F20737461BE
:1000D00072742E005075736820504155534500725C
:1000E000656D6F7665643A00546F74616C206C695D
:1000F0006E65730053636F72653A20004C657665D8
:100100006C3A20000000E07700000000E0EF000003
:1001100000000000000000000000000000000000DF
:1001200000000000E0EF00000000E0770000E07752
:10013000E08F0000000080FF0000000000000000D1
:100140000000000000000000000080FF0000000030
:10015000E08FE0770000E0770000E08F0000000013
:10016000000000000000000000000000000000008F
:10017000000000000000E08F0000E0770000E07762
:1001800000000000E0A7E0A7E0B7E0B7E0D7E0DFBD
:10019000A0FFE0DFE0D7E0B7E0B7E0A7E0A700000E
:1001A0000000E077000000000000000000000000F8
:1001B000000000000000000000000000000000003F
:1001C0000000000000000000000000000000FFAF81
:1001D0009F973F7F0000BF6EFF65FF6500001F4DCA
:1001E0005F3C3F2300007F1A5F11000000007F008A
:1001F0001F001F100000FFAF000000000000BF6ED6
:100200000000000000001F4D00003F2300007F1A87
:1002100000005F1100007F00000000000000FFAF41
:100220009F973F7F0000BF6E0000000000001F4D41
:1002300000003F2300007F1A5F11000000007F00D4
:100240001F0000000000000000003F7F0000BF6EA4
:100250000000000000001F4D00003F2300007F1A37
:1002600000005F1100007F00000000000000FFAFF1
:100270009F973F7F0000BF6EFF65FF6500001F4D29
:100280005F3C3F2300007F1A00005F1100007F00E9
:100290001F001F1000000000000000000000000010
:1002A000000000000000000000000000000000004E
:1002B0000000000000000000000000000000E077E7
:1002C00000000000E0A7E0A7E0B700000000000089
:1002D0000000000000000000E0B7E0A7E0A7000079
:1002E0000000E0770000E0770000E08F00000000F1
:1002F0000000E0B700000000000000000000E0B7D0
:10030000000000000000E08F0000E0770000E077D0
:10031000E08F00000000000000000000E0E70000A7
:1003200000000000E0E70000000000000000000006
:10033000E08FE0770000E077000040FA80FBA0FC4F
:10034000000000000000E0F7E0E7E0F70000000038
:100350000000A0FC80FB40FA0000E07700000000F5
:10036000000000000000000000000000000000008D
:10037000000000000000000000000000000000007D
:10038000000000000000000000000000000000006D
:10039000000000000000000000000000000000005D
:1003A000000000000000000000000000000000004D
:1003B00000F8000060FA60FA00000000000040FF52
:1003C00060FE40FF00000000000060FA60FA0000DC
:1003D00000F80000000000F8000000F80000000035
:1003E00060FB000080FE00000000000080FE0000B6
:1003F00060FB0000000000F8000000F800000000B2
:1004000000F8000000000000000080FD0000000077
:1004100000000000000080FD00000000000000005F
:1004200000F80000000000000000000000000000D4
:1004300000000000000000000000000000000000BC
:1004400000000000000000000000000000000000AC
:10045000F70700000000FA070000FE07BF075F076C
:100460000000BF06000000001F0600005F05FF043B
:10047000DF03000000000000F707F7070000FA079D
:100480000000FE070000000000000000BF061F067D
:10049000000000000000FF04000000000000000059
:1004A000F7070000FA07FA070000FE07BF07000081
:1004B0000000BF06000000001F0600000000FF044F
:1004C0000000000000000000F70700000000FA072D
:1004D0000000FE07000000000000BF060000000052
:1004E0001F0600000000FF040000000000000000E4
:1004F000F70700000000FA070000FE07BF075F07CC
:100500000000BF06000000001F0600000000FF04FE
:1005100000000000000000000000000000000000DB
:1005200000000000000000000000000000000000CB
:100530000000000000000000000000000000E07764
:1005400000000000E0A7E0A7E0B7E0B7000000006F
:10055000000000000000E0B7E0B7E0A7E0A700005F
:100560000000E0770000E0770000E08F000000006E
:100570000000E0CF00000000000000000000E0CF1D
:10058000000000000000E08F0000E0770000E0774E
:10059000E08F00000000000000000000E0E7000025
:1005A00000000000E0E70000000000000000000084
:1005B000E08FE0770000E077000040FA80FBA0FCCD
:1005C000A0FD60FF0000E0F7E0E7E0F7000060FF5B
:1005D000A0FDA0FC80FB40FA0000E07700000000D6
:1005E000000000000000000000000000000000000B
:1005F00000000000000000000000000000000000FB
:100600000000000066697273742E00596F752061D6
:10061000726520746865004F6B206C6F6C00000081
:1006200000000000000000000000000000000000CA
:1006300000000000000000000000000000000000BA
:100640000000000000000000000000F8000060FA58
:1006500060FA00000000000040FF60FE40FF000064
:100660000000000060FA60FA000000F800000000DE
:1006700000F8000000F80000000060FB000080FEB1
:1006800000000000000080FE000060FB0000000091
:1006900000F8000000F80000000000F80000000072
:1006A0000000000080FD00000000000000000000CD
:1006B00080FD000000000000000000F800000000C5
:1006C000000000000000000000000000000000002A
:1006D000000000000000000000000000000000001A
:1006E0000000000000000000BF00000000009F02AA
:1006F0005F031F0400005F05000000001F070000EB
:10070000FF07FD07F8070000F507000000000000E4
:10071000BF00000000009F020000000000005F0515
:10072000000000001F070000FF070000000000009D
:10073000F507000000000000BF00000000009F025D
:100740005F03000000005F05000000001F070000BD
:10075000FF07FD07F8070000F50700000000000094
:10076000BF00000000009F020000000000005F05C5
:10077000000000001F070000FF070000000000004D
:10078000F507000000000000BF003F0100009F02CD
:100790005F031F04000000005F065F06000000000A
:1007A000FF07FD07F8070000F507F207ED07000057
:1007B0000000000000000000000000000000000039
:1007C0000000000000000000000000000000000029
:1007D0000000000000000000E07700000000E0A73B
:1007E000E0A7E0B7E0B7E0D7E0DFA0FFE0DFE0D7C9
:1007F000E0B7E0B7E0A7E0A700000000E077000066
:10080000E0770000E08F0000000000000000000022
:1008100000000000000000000000000000000000D8
:10082000E08F0000E0770000E077E08F000000003C
:1008300080FF000000000000000000000000000039
:100840000000000080FF00000000E08FE077000063
:10085000E07700000000E0EF000000000000000072
:100860000000000000000000000000000000E0EFB9
:1008700000000000E0770000E077E0A7E0C700009C
:10088000E0EF000000000000000000000000000099
:1008900000000000E0EF0000E0C7E0A7E077000004
:1008A0000000003E5B4F5B3E3E6B4F6B3E1C3E7C50
:1008B0003E1C183C7E3C181C577D571C1C5E7F5EFE
:1008C0001C00183C1800FFE7C3E7FF0018241800BD
:1008D000FFE7DBE7FF30483A060E26297929264054
:1008E0007F050507407F05253F5A3CE73C5A7F3E80
:1008F0001C1C08081C1C3E7F14227F22145F5F0012
:100900005F5F06097F017F006689956A60606060AD
:100910006094A2FFA29408047E040810207E201098
:1009200008082A1C08081C2A08081E101010100CA1
:100930001E0C1E0C30383E3830060E3E0E060000EF
:1009400000000000005F00000007000700147F1493
:100950007F14242A7F2A1223130864623649562002
:10096000500008070300001C2241000041221C0027
:100970002A1C7F1C2A08083E0808008070300008E6
:1009800008080808000060600020100804023E51BA
:1009900049453E00427F400072494949462141494C
:1009A0004D331814127F1027454545393C4A4949B3
:1009B0003141211109073649494936464949291E1D
:1009C000000014000000403400000008142241140C
:1009D00014141414004122140802015909063E415E
:1009E0005D594E7C1211127C7F494949363E414186
:1009F00041227F4141413E7F494949417F090909DF
:100A0000013E414151737F0808087F00417F41004A
:100A10002040413F017F081422417F404040407FF9
:100A2000021C027F7F0408107F3E4141413E7F0946
:100A30000909063E4151215E7F0919294626494987
:100A4000493203017F01033F4040403F1F204020C7
:100A50001F3F4038403F63140814630304780403C5
:100A60006159494D43007F41414102040810200073
:100A70004141417F040201020440404040400003E4
:100A800007080020545478407F28444438384444B0
:100A90004428384444287F385454541800087E09A8
:100AA0000218A4A49C787F0804047800447D4000C8
:100AB0002040403D007F1028440000417F40007CE2
:100AC000047804787C080404783844444438FC18DA
:100AD00024241818242418FC7C08040408485454BE
:100AE000542404043F44243C4040207C1C204020EB
:100AF0001C3C4030403C44281028444C9090907C52
:100B00004464544C44000836410000007700000063
:100B10004136080002010204023C2623263C1EA1A5
:100B2000A161123A4040207A385454555921555504
:100B300079412154547841215554784020545579B5
:100B4000400C1E5272123955555559395454545946
:100B500039555454580000457C410002457D4200FF
:100B600001457C40F0292429F0F0282528F07C5408
:100B70005545002054547C547C0A097F4932494928
:100B800049323248484832324A4848303A41412195
:100B90007A3A42402078009DA0A07D3944444439EF
:100BA0003D4040403D3C24FF2424487E4943662B81
:100BB0002FFC2F2BFF0929F620C0887E0903205423
:100BC0005479410000447D413048484A3238404021
:100BD000227A007A0A0A727D0D19317D2629292F81
:100BE00028262929292630484D4020380808080899
:100BF00008080808382F10C8ACBA2F102834FA009B
:100C0000007B000008142A142222142A1408AA00C7
:100C10005500AAAA55AA55AA000000FF00101010FE
:100C2000FF00141414FF001010FF00FF1010F0104C
:100C3000F0141414FC001414F700FF0000FF00FF70
:100C40001414F404FC141417101F10101F101F1498
:100C500014141F00101010F0000000001F101010DE
:100C6000101F10101010F010000000FF10101010D6
:100C70001010101010FF10000000FF140000FF0003
:100C8000FF00001F10170000FC04F41414171017C5
:100C90001414F404F40000FF00F7141414141414D2
:100CA00014F700F7141414171410101F101F141445
:100CB00014F4141010F010F000001F101F000000BA
:100CC0001F14000000FC140000F010F01010FF10C2
:100CD000FF141414FF141010101F00000000F01077
:100CE000FFFFFFFFFFF0F0F0F0F0FFFFFF0000005C
:100CF0000000FFFF0F0F0F0F0F38444438447C2AC9
:100D00002A3E147E02020606027E027E02635549D6
:100D100041633844443C04407E201E2006027E028B
:100D20000299A5E7A5991C2A492A1C4C7201724C0C
:100D3000304A4D4D303048784830BC625A463D3ECE
:100D4000494949007E0101017E2A2A2A2A2A44446F
:100D50005F444440514A444040444A51400000FFEF
:100D60000103E080FF000008086B6B083612362490
:100D700036060F090F0600001818000000101000BA
:100D80003040FF0101001F01011E00191D17120054
:100D90003C3C3C3C0000000000000000002300261A
:100DA0000029002C002F000000000200090F0000A5
:100DB000030401000C00000000000000000000001F
:100DC00000000000000000000000240027002A00AE
:100DD0002D00300004E010021C07123732292D29A3
:100DE000252B3900010310E110031D07062E2C29C5
:100DF0002D2E2E373F0000021013800A2980640236
:100E00002A040000007F2B040000009F022A040037
:100E10000200812B04000100A00F0180961180FFC9
:100E2000B103012C2DB203012C2DB306012C2D0191
:100E30002C2DB40107C003A20284C101C5C2020A5D
:100E400000C3028A2AC4028AEEC5010E20003601C0
:100E5000C83A0105070605040100080A0B0C0D0934
:100E60002E2E2E415445545249532E2E2E00202012
:100E70002020746F2073746172742E005075736833
:100E800020444F574E0028632941697272722872BC
:100E9000290050617573652000080B0002020200F2
:100EA00000090400000102020000052400100105F1
:100EB000240101010424020605240600010705811E
:100EC0000310004009040100020A000000070502A7
:100ED00002400000070583024000000403090412D9
:100EE000010002EF020140412337800001010203AB
:100EF0000141726475696E6F204C4C43004172640D
:100F000075696E6F204D6963726F000408020110ED
:100F10004080401020408040800802040180402032
:100F20001002011080102040402000000000250029
:100F300028002B002E0031000404040404030405DF
:100F40000202020204030202020206060606060666
:100F50000404020202040403B51D11241FBECFEFD6
:100F6000DAE0DEBFCDBF15E0A0E0B1E0E6EDF5E5EB
:100F700002C005900D92AA36B107D9F727E0AAE67C
:100F8000B5E001C01D92A539B207E1F717E0CDEA3F
:100F9000D7E004C02197FE010E940B28CC3AD1076C
:100FA000C9F70E94121E0C94E92A0C9400002E9896
:100FB000615078F0FC012081318102963EBD02D063
:100FC00001D001C0089500002EBD01D001C00895D8
:100FD000EFCF0DB407FEFDCF2E9A08959CB59093E8
:100FE0007707909176079CBD8EBD00000DB407FE7B
:100FF000FDCF809177078CBD08958D982E980E9423
:10100000EE072E9A08958D9A2E980E94EE072E9A3A
:101010000895FC0180910707882311F13FB7F894E8
:1010200082E08093E9002091F200822F90E0181670
:10103000190614F481E090E0882339F0289A44E6F8
:10104000409306074091F1004083222339F020911C
:10105000F200211103C02BE62093E8003FBF089562
:101060008FEF9FEF08952FB7F89483E08093E90006
:101070009091E800892F807295FF04C09091F20052
:1010800080E4891B2FBF08958091FE0681110DC059
:1010900082E08093FA0684E08093FB061092FD06BE
:1010A0001092FC0681E08093FE068AEF96E0089598
:1010B000CF93DF931F92CDB7DEB76983DC01ED914B
:1010C000FC910280F381E02D41E050E0BE016F5FB2
:1010D0007F4F09950F90DF91CF91089583E0809322
:1010E000E9008091F200882319F08AE38093E800F8
:1010F00008950E94330890E00895CF93DF931F92E4
:10110000CDB7DEB7FC018485958597FD08C02FEF2C
:101110003FEF358724870F90DF91CF910895CE015F
:1011200001960E940908019719F4898190E0F3CF94
:101130008FEF9FEFF0CF0F931F93CF93DF931F920B
:10114000CDB7DEB78C01FC018485958597FF0BC078
:10115000CE0101960E940908019771F4898190E0FF
:10116000F80195878487F801848595850F90DF9134
:10117000CF911F910F9108958FEF9FEFF1CFFC0159
:101180008485958597FD0BC09FB7F89482E0809386
:10119000E9008091F2009FBF90E0019608959FB70B
:1011A000F89482E08093E9008091F2009FBF90E084
:1011B00008954091F4065091F5062091F206309181
:1011C000F30642175307B4F49091E8009570E1F3E9
:1011D0009091E80092FD19C08093F1008091F4068F
:1011E0009091F50601968F739927892B19F48EEF4C
:1011F0008093E8008091F4069091F5060196909313
:10120000F5068093F40681E0089580E00895EF925A
:10121000FF920F931F93CF93DF93F82E192FE62E93
:10122000042F81E0860F880F0E94D90883E00E9476
:10123000D908CF2DD12FEC0EFD2EF11CCE15DF05D8
:10124000B9F007FF13C0FE0184910E94D908182F3E
:1012500080E00E94D908812321968111EFCFDF9190
:10126000CF911F910F91FF90EF9008958881EDCF5E
:1012700081E0F5CFDF92EF92FF920F931F93CF9310
:10128000DF93D82E8A01EB017B01E40EF51ECE150B
:10129000DF0559F0D7FE12C0FE0184910E94D908E3
:1012A00021968111F4CF0FEF1FEFC801DF91CF918D
:1012B0001F910F91FF90EF90DF9008958881EECFFE
:1012C0000F931F93CF93DF931F92CDB7DEB782E0CA
:1012D000898342E450E069E97EE080E80E943A09AF
:1012E0000E944408DC0112960D911C910115110514
:1012F00089F0D801ED91FC910280F381E02DBE01CF
:101300006F5F7F4FC801099597FD04C0F801008504
:101310001185ECCF89810F90DF91CF911F910F91B3
:101320000895615030F02091F100FC012083019676
:10133000F8CF289A84E680930607089508950895C3
:10134000AF92BF92CF92DF92EF92FF920F931F93D3
:10135000CF93DF936C017B018B01040F151FEB0111
:101360005E01AE18BF08C017D10759F06991D601C8
:10137000ED91FC910190F081E02DC6010995892B3A
:1013800079F7C501DF91CF911F910F91FF90EF90F9
:10139000DF90CF90BF90AF90089581508F3008F0CC
:1013A00047C0E82FF0E0E952F64F0C940B28F409FF
:1013B000F809E609EC09F009180A180A180AFB09E5
:1013C000010A050A090A0F0A180A130A8091800007
:1013D0008F77809380000895809180008F7DF9CF72
:1013E00080918000877FF5CF84B58F7784BD089585
:1013F00084B58F7DFBCF809190008F778093900094
:101400000895809190008F7DF9CF80919000877F23
:10141000F5CF8091C0008F778093C00008958091B0
:10142000C0008F7DF9CF8091C200877F8093C2007A
:101430000895CF93DF93282F30E0F901E955F24F5B
:101440008491F901E55FF04FD491F901E85CF04F28
:10145000C491CC23A1F081110E94CD09EC2FF0E0C2
:10146000EE0FFF1FE756F24FA591B491EC91ED23DB
:1014700081E090E009F480E0DF91CF91089580E071
:1014800090E0FACF1F93CF93DF93282F30E0F9013C
:10149000E955F24F8491F901E55FF04FD491F901DC
:1014A000E85CF04FC491CC23A9F0162F81110E9463
:1014B000CD09EC2FF0E0EE0FFF1FE65DF04FA59198
:1014C000B4918FB7F894EC91111108C0D095DE2338
:1014D000DC938FBFDF91CF911F910895DE2BF8CF62
:1014E000CF93DF9390E0FC01E55FF04F2491885C9F
:1014F000904FFC0184918823D1F090E0880F991FD0
:10150000FC01EA53F24FA591B491FC01E65DF04F66
:10151000C591D491623071F49FB7F8943C91822FB9
:10152000809583238C93E8812E2B28839FBFDF91A6
:10153000CF9108958FB7F894EC912E2B2C938FBFF9
:10154000F6CF4F925F926F927F928F929F92AF925F
:10155000BF92CF92DF92EF92FF920F931F93CF93A0
:10156000DF9300D000D01F92CDB7DEB78C012A01E7
:101570003B018091DA028730C9F08F3F09F47EC0C9
:101580000F900F900F900F900F90DF91CF911F91C0
:101590000F91FF90EF90DF90CF90BF90AF909F9012
:1015A0008F907F906F905F904F900895E7E5FFE0F8
:1015B00084918D8387FDE4CF61E087E00E94700A0B
:1015C0008D81882321F09D81923009F069C1480105
:1015D000B12CA12C60E072E18AE790E0A5019801AE
:1015E0000E94652529833A834B835C8369017A01D4
:1015F00081E0C81AD108E108F1089FEFC916D104AB
:10160000E104F10409F00CF421C160E472E48FE01C
:1016100090E0A50198010E94652569017A0181E0A9
:10162000C81AD108E108F1089D81923009F0B8C0CC
:101630008FEFC816D104E104F10409F00CF40EC1D7
:1016400060E970ED83E090E0A50198010E946525B6
:1016500069017A0191E0C91AD108E108F1088FEF18
:10166000C816D104E104F10411F00CF0D9C1411401
:1016700051046104710409F483CF6FC187E0809342
:10168000DA02E7E5FFE094919D839F3F09F478CF6C
:10169000913041F170F0933009F442C0943009F474
:1016A00061C08D8187FD6CCF61E087E00E94700A88
:1016B0008ACF14BC15BC84B5826084BD85B58160B9
:1016C00085BDEFE3FFE0E491F0E0EE0FFF1FE65D84
:1016D000F04F85919491E2E1FFE0E491E0930D07F2
:1016E0001D826ACF1092800010928100809181004B
:1016F0008860809381008091810081608093810067
:10170000EFE3FFE0E491F0E0EE0FFF1FE65DF04F46
:1017100085919491E2E1FFE0E491E0930C074CCFD6
:1017200010929000109291008091910088608093B7
:10173000910080919100816080939100EFE3FFE040
:10174000E491F0E0EE0FFF1FE65DF04F859194917C
:1017500090930B0780930A07E2E1FFE0E491E093A6
:1017600009072ACF1092C0001092C1008091C100D9
:1017700088608093C1008091C10081608093C10026
:10178000EFE3FFE0E491F0E0EE0FFF1FE65DF04FC6
:1017900085919491E2E1FFE0E491E09308070CCF9A
:1017A0009FEFC916D104E104F10409F00CF476C0EE
:1017B00068E478EE81E090E0A50198010E9465253B
:1017C00069017A0181E0C81AD108E108F1089D8118
:1017D000992309F463C19FEFC916D104E104F10410
:1017E00009F04CF4411451046104710409F47EC001
:1017F00091E09D83B2C062E17AE780E090E0A501CC
:1018000094010E94652569017A0181E0C81AD10816
:10181000E108F1089D81992309F4F9C08FEFC816FA
:10182000D104E104F104D1F0C8F0C980DA80EB8082
:10183000FC808AE0F594E794D794C7948A95D1F711
:1018400091E0C91AD108E108F10808C081E09D8142
:10185000911104C095B5987F892B85BD2FEF3FEF7F
:10186000A901411451046104710409F076C08D810D
:10187000813009F43EC00CF0A0C0811181CEC7BCFC
:1018800020931A0730931B0740931C0750931D07A2
:1018900080916E00826080936E0072CE82E0D7CF1E
:1018A000B12CA12C60E072E18AE790E0A5019801DB
:1018B0000E94652569017A0181E0C81AD108E10812
:1018C000F108C114D10491E0E906F10424F591E096
:1018D0008D81813089F580918100887F892B80936B
:1018E00081004114510461047104B9F52FEF3FEFF9
:1018F000A901D0928900C0928800209316073093E6
:101900001707409318075093190780916F00826062
:1019100080936F0035CE68E478EE81E090E0A50119
:1019200098010E94652569017A0181E0C81AD108F1
:10193000E108F10893E0CCCF8D818330E1F4809110
:101940009100887F892B809391002FEF3FEFA901B1
:101950004114510461047104B1F1D801AA0FBB1FF5
:10196000A30192010E94842528EE33E040E050E07C
:101970000E9497257CCF8D81843009F06FCF8091B4
:10198000C100887F892B8093C1002FEF3FEFA90111
:10199000411451046104710401F7C092CF002093F7
:1019A0000E0730930F074093100750931107809153
:1019B0007200806480937200E3CD9D81933019F0B2
:1019C000943059F3DDCDD0929900C09298002093C5
:1019D0001207309313074093140750931507809113
:1019E0007100826080937100CBCDC980DA80EB807A
:1019F000FC809AE0F594E794D794C7949A95D1F730
:101A000091E0C91AD108E108F10885E023CF8FEFF2
:101A1000C816D104E104F10409F038F784E01ACFC4
:101A200068E478EE81E090E0A50198010E946525C8
:101A300069017A0191E0C91AD108E108F1088FEF34
:101A4000C816D104E104F10409F00CF407CF64E2F4
:101A500074EF80E090E0A50194010E946525690182
:101A60007A0181E0C81AD108E108F1089FEFC91690
:101A7000D104E104F10409F008F4F9CD62E17AE758
:101A800080E090E0A50194010E94652569017A013A
:101A900091E0C91AD108E108F108C0CE8FEFC8164D
:101AA000D104E104F10411F00CF0A5CE83E0D2CE14
:101AB0003FB7F8948091790590917A05A0917B05C4
:101AC000B0917C0526B5A89B05C02F3F19F0019663
:101AD000A11DB11D3FBFBA2FA92F982F8827BC0188
:101AE000CD01620F711D811D911D42E0660F771FB0
:101AF000881F991F4A95D1F708958F929F92AF92B0
:101B0000BF92CF92DF92EF92FF926B017C010E9415
:101B1000580D4B015C01C114D104E104F104B9F08A
:101B20000E94580D681979098A099B09683E73401B
:101B30008105910580F321E0C21AD108E108F1087E
:101B400088EE880E83E0981EA11CB11CE4CFFF90A4
:101B5000EF90DF90CF90BF90AF909F908F900895BF
:101B6000CF92DF92EF92FF920F931F93CF93DF9369
:101B7000EC012196FC01E490EA94FFEFEF1679F175
:101B8000FE0184910E94FD076E01F2E0CF0ED11C90
:101B9000FE013196F490CF2DCF778601DC2FD15006
:101BA00038F0F80184910E9403080F5F1F4FF7CFB0
:101BB000CC0DDD2DD11DF7FEDFCF8E010F5F1F4F46
:101BC000FE01649170E090E080E06F3F21F464EFEB
:101BD00071E080E090E00E947D0DE801CDCFDF91C3
:101BE000CF911F910F91FF90EF90DF90CF900895CC
:101BF0008F929F92AF92BF92CF92DF92EF92FF921D
:101C00000F931F93CF93DF936C017B018A01809127
:101C1000D902882309F45CC080910707882309F45E
:101C200057C08091F90680FF05C08091E000826076
:101C30008093E000E801B12C8AEFA82E93E0892E72
:101C40002AE3922E209711F4BB20D9F10E94330889
:101C500081110AC0AA94AA20D9F161E070E080E065
:101C600090E00E947D0DEECF8C171D0611F00CF058
:101C70008C2F9FB7F8948092E9002091E80025FD11
:101C800002C09FBFDFCF282F30E0C21BD30BF7016C
:101C9000815020F041914093F100FACFE20EF31E03
:101CA000BB2021F09092E800B12CEBCF8091E800AE
:101CB00085FDE7CF9092E800BB24B394209709F309
:101CC000F3CF5D9A84E68093F806101611063CF077
:101CD00081E090E0F6019383828310E000E0C80188
:101CE000DF91CF911F910F91FF90EF90DF90CF90F8
:101CF000BF90AF909F908F9008952FB7F894609108
:101D000075057091760580917705909178052FBFC4
:101D100008954115510529F4EAE7F0E080818F77B5
:101D200080836A307105B9F0CB01880F991F880F45
:101D3000991F807267706860682B88E10FB6F8940D
:101D4000A895809360000FBE60936000E0E6F0E02D
:101D5000808180648083232BB1F483B7817F84608A
:101D600083BFF89483B7816083BF7894889583B7E5
:101D70008E7F83BF7894452B29F4EAE7F0E08081D9
:101D800080688083089583B7817F846083BFF894DF
:101D900083B7816083BF7894889583B78E7F83BF34
:101DA0007894E9CFFC01808991896817790708F058
:101DB0005BC0828993894817590708F055C08D98F0
:101DC0002E9881A186171706D1F08AE28EBD0000F9
:101DD000009601D001C0089561A38D9A1EBC000039
:101DE0000096009601D001C008958581680F6EBDF0
:101DF00000000096009601D001C008958D9880A142
:101E000084171506D1F08BE28EBD0000009601D03C
:101E100001C0089540A38D9A1EBC00000096009654
:101E200001D001C008958681480F4EBD0000009684
:101E3000009601D001C008958D988CE28EBD009669
:101E40000096009601D001C008958D9A3EBD02D043
:101E500001D001C0089500002EBD0000009600963C
:101E600001D001C008952E9A08950F93FC018FEFC1
:101E700080A381A38D982E988AE28EBD009600964D
:101E8000009601D001C008958D9A1EBC00000096F6
:101E9000009601D001C008958581680F6EBD02D003
:101EA00001D001C0089500001EBC000000960096FD
:101EB00001D001C008958581280F2EBD0000009635
:101EC000009601D001C008958D988BE28EBD0096DA
:101ED0000096009601D001C008958D9A1EBC0000A6
:101EE0000096009601D001C008958681480F4EBD2E
:101EF00002D001D001C0089500001EBC0000009671
:101F0000009601D001C008958681080F0EBD000023
:101F10000096009601D001C008958D988CE28EBD88
:101F200000000096009601D001C008958D9A0F918F
:101F30000895EF92FF920F931F93CF93DF93CDB746
:101F4000DEB7C058D1090FB6F894DEBF0FBECDBFC3
:101F50007C01AB018B01015F1F4F2FE430E06CE38C
:101F600070E08EE697E00E94350F2E9A0DB407FEC2
:101F7000FDCF870180E8E81A8DEFF80AE016F10638
:101F8000B9F0DE01119630E020E0CD01F901E00F5B
:101F9000F11F459154914D935D932E5F3F4F203833
:101FA0003105A1F760E40E94D70700581F4FE6CF24
:101FB000C058DF4F0FB6F894DEBF0FBECDBFDF9124
:101FC000CF911F910F91FF90EF900895EF92FF92A4
:101FD0000F931F93CF93DF93EA01F22EE32E00912C
:101FE0008007109181079C01AB01BC018EE697E050
:101FF0000E94350F209771F0EEBC02D001D001C0D5
:1020000008950000FEBC0096009601D001C008951E
:10201000219791F72E9ADF91CF911F910F91FF9009
:10202000EF900895EF92FF920F931F93CF93DF935A
:10203000EB01F42EE52E20917E0730917F078C0175
:10204000AC016DE370E08EE697E00E94350F2097BB
:1020500071F0EEBC02D001D001C008950000FEBCBA
:102060000096009601D001C00895219791F72E9A0D
:10207000DF91CF911F910F91FF90EF900895CF9234
:10208000DF92EF92FF920F931F93CF93DF93EC01B8
:102090007B016A018901A9010E941210CE018C0DF9
:1020A0009D1DA801B70101970E9412109801A60179
:1020B000BE018DE390E00E94E60F9801A601BE01EB
:1020C000C701CC96DF91CF911F910F91FF90EF90B8
:1020D000DF90CF900C94E60FCF92DF92EF92FF92B9
:1020E0000F931F93CF93DF936901E8018A010C0FCF
:1020F0001D1F015011099B012C0D3D1D215031095F
:102100000E94350FCC16DD062CF49C2D8D2D6E0112
:10211000C92FD82F219790F0C601009771F0FEBC0F
:1021200002D001D001C008950000EEBC00960096D8
:1021300001D001C00895019791F7ECCF2E9ADF915D
:10214000CF911F910F91FF90EF90DF90CF90089566
:10215000EF92FF920F931F93EEE6F7E00289138947
:1021600020893189F12CE12C50E040E070E060E002
:10217000CF010E946C101F910F91FF90EF90089576
:102180002F923F924F925F926F927F928F929F9287
:10219000AF92BF92CF92DF92EF92FF920F931F9375
:1021A000CF93DF93CDB7DEB762970FB6F894DEBF5B
:1021B0000FBECDBFFC016D30F9F032A188E090E098
:1021C00006E010E0313021F090E080E010E000E027
:1021D00023A1C22ED12CC89ED001C99EB00DD89E7D
:1021E000B00D1124868997896A3009F58A0F9B1FE3
:1021F000978B868B158A148A81E090E062960FB6E1
:10220000F894DEBF0FBECDBFDF91CF911F910F912C
:10221000FF90EF90DF90CF90BF90AF909F908F9006
:102220007F906F905F904F903F902F90089546A1C0
:102230004423B1F0C09EA001C19E500DD09E500D10
:10224000112404891589400F511F008911894017F5
:10225000510730F08A0F9B1F978B868B158A148A43
:10226000862E1F0190E080E0313009F085C064893E
:10227000758980899189681779070CF077C0A688DD
:10228000B78882899389A816B9060CF06FC0CB0174
:1022900036E0239F800D911D1124181619060CF0AD
:1022A00065C0C60133E0880F991F3A95E1F78A0DA2
:1022B0009B1D181619060CF059C0848D958D9887B2
:1022C0008F83628C738C95E0899E400111242130AC
:1022D00009F0DBC0FB0135966F012F81388526158B
:1022E000370509F45CC08501085F1F4F9F01A501F8
:1022F000C1010E94350FDE01119690E080E0B4012B
:102300006256774FFB01E80FF91FE491ED930196B8
:1023100085309105B9F71E823885472D88E091E018
:1023200061E070E06C0F7D1F6B5F7F4FFE013196A7
:102330002191292349F10DB407FEFDCF4EBD0000C8
:102340000DB407FEFDCF6EBC6E177F0789F7990F9E
:102350000DB407FEFDCF3EBD0DB407FEFDCFEF81EE
:10236000EEBD815019F70DB407FEFDCFF10183A139
:10237000F6E08F9FC0011124F10124893589820F75
:10238000931F958B848B38CF0DB407FEFDCF3EBDD8
:1023900000000DB407FEFDCF2F812EBDD5CF2B0140
:1023A000861A970A94012256374F38872F83C50122
:1023B00001969A878987F5013296FC87EB8775012C
:1023C000F3E0EF0EF11C95012C5F3F4F3E872D8708
:1023D0000496988B8F87450196E0890E911CF50134
:1023E0003796FA8BE98BEF81F885E40DF51D149192
:1023F00010FF06C09301A501B201C1010E94D20ED7
:1024000011FF07C0930149855A85B201C1010E949D
:10241000D20E12FF07C093014B855C85B201C1014A
:102420000E94D20E13FF06C09301A701B201C101A1
:102430000E94D20E14FF07C093014D855E85B20144
:10244000C1010E94D20E15FF07C093014F85588924
:10245000B201C1010E94D20E16FF06C09301A40171
:10246000B201C1010E94D20E17FF07C09301498932
:102470005A89B201C1010E94D20EFFEF4F1A5F0AC2
:10248000C414D50409F0AFCF71CF2B011A86198679
:10249000C4018256974F9A8B898BE22FF0E0F88B1C
:1024A000EF87E989FA8929853A85E20FF31FE491DC
:1024B000450138E03B878E2F90E09E878D87730122
:1024C000E0FD06C0EF81F885E615F70541F07F01D4
:1024D00086019601A401B201C1010E946C10ED8534
:1024E000FE85F595E795FB85F150FB872F853889AB
:1024F000820E931EF111DFCF89859A8501969A8706
:1025000089874C0C5D1C059761F630CF0F931F93A4
:10251000CF93DF938C01D0E0C0E0F801EC0FFD1FFA
:102520006491662341F08EE697E00E94C010892BEB
:1025300011F02196F2CFCE01DF91CF911F910F9133
:102540000895089590E080E008958F929F92AF9251
:10255000BF92CF92DF92EF92FF920F931F93CF9390
:10256000DF9344E9A42E45E0B42EC3E0D0E065013A
:1025700033E0832E912CD6018C9181110EC020E482
:10258000E22E28E0F22E04E010E024E030E0AE017C
:10259000B4018EE697E00E946C10D601EC91EE2318
:1025A00089F0F0E0EE0FFF1FE152FD4FE080F18077
:1025B00004E010E024E030E0AE01B4018EE697E0E4
:1025C0000E946C10BFE1CB0ED11CE5E08E0E911C79
:1025D000FAE38F16910479F625968FEFA81AB80AB8
:1025E000CE39D10521F6D0E0C0E085E0982EDE019D
:1025F000A258BA4F5D01D12CC12CF50180818823EE
:1026000061F1E091900584E0E89FF0011124E55428
:10261000FB4FE280F38080918E0590918F058C0FA7
:102620009D1F989EA001999E500D11244D5F5F4FF4
:102630008091C1029091C2028C0D9D1D989EB001A7
:10264000999E700D11246D5F7F4F04E010E024E02F
:1026500030E08EE697E00E946C109FEFC91AD90A0D
:10266000A4E0AA0EB11CB4E0CB16D10431F6219639
:10267000C430D10509F0BBCFDF91CF911F910F91ED
:10268000FF90EF90DF90CF90BF90AF909F908F9092
:102690000895FC0101900020E9F73197AF01481B34
:1026A000590BBC018EE697E00C94A009CF93DF9301
:1026B0000E948612EC0180E595E00E9449138C0F80
:1026C0009D1FDF91CF9108952F923F924F925F927D
:1026D0006F927F928F929F92AF92BF92CF92DF9232
:1026E000EF92FF920F931F93CF93DF936EE1362EFD
:1026F00075E0272EE0E24E2E512CD0E0C0E080E0C5
:10270000C32CD12C2FE12C9FF0012D9FF00D112413
:10271000EC56FA4FEC0DFD1D908191118F5F8B30BF
:1027200009F0B9C08091920590919305019690931C
:10273000930580939205883E934008F451C08091A0
:10274000CD02893058F10E94A81080E098EF909354
:102750008B0780938A07909389078093880788E086
:1027600090E0909383078093820784E690E09093B3
:1027700085078093840787E196E00E9456138BE0DB
:1027800096E00E94561384E096E00E94561361E0A2
:1027900070E080E090E00E947D0DF9CF10929305EB
:1027A000109292058F5F8093CD02EE24EA94FE2C66
:1027B00000E110E024E130E04CE250E06CE370E036
:1027C0008EE697E00E946C1064E670E080E090E096
:1027D0000E947D0D6CE270E08EE196E00E94990F00
:1027E000329C4001112483E0880E911C30E2A32E1C
:1027F00033E0B32E43E0642E712CEE24EA94FE2CD9
:1028000004E010E024E030E0A401B3018EE697E09C
:102810000E946C1048E250E060E070E0C5010E9448
:10282000A10A6FE070E080E090E00E947D0D95E0ED
:10283000690E711C24EDA21A2EEFB20A8AE3681603
:102840007104D9F6432D30E020E0C6018C569A4F32
:10285000413081F0FC01E21BF30B5BE0DF011197DB
:102860006C91608351507F965111F8CF41502F5F8A
:102870003F4FEECF50928F0540928E0584E090E05E
:102880009093C2028093C1020E94A5120E94641319
:1028900080E09EE1392E2196CB30D10509F030CF72
:1028A0003A9431102ACFDF91CF911F910F91FF9071
:1028B000EF90DF90CF90BF90AF909F908F907F90E0
:1028C0006F905F904F903F902F900895CF93DF933C
:1028D000609190056F5F8091C1029091C2024FE1BB
:1028E000489F9001499F300D112480918E05909151
:1028F0008F05280F391F90E080E02C563A4F7FE17A
:10290000FC01E258FA4FE901C80FD91F50E040E03E
:10291000A081AA2341F0749FD001759FB00D1124AE
:10292000AC0FBD1F6C934F5F5F4F34964430510521
:1029300079F701968430910519F7DF91CF910C94C6
:1029400064138F929F92AF92BF920F931F93CF9376
:10295000DF93CDB7DEB7A1970FB6F894DEBF0FBEF9
:10296000CDBF19A2423008F44AE08E010F5D1F4F1F
:10297000842E912CB12CA12CA50194010E949725A5
:10298000E62FB901CA01EA30F4F4E05DD801EE9314
:102990008D01232B242B252B79F790E080E01097D5
:1029A00019F0CD010E944913A1960FB6F894DEBF2D
:1029B0000FBECDBFDF91CF911F910F91BF90AF9010
:1029C0009F908F900895E95CE1CFCF93DF9324E946
:1029D00035E08FE1F9019BE0108291507F969111D3
:1029E000FBCF81502F5F3F4F8111F4CFD0E0C0E08B
:1029F00060E0CE010E9457252196C11584E0D807DA
:102A0000B9F7109293051092920581E08093CD0260
:102A1000DF91CF910895FF920F931F93CF93DF9390
:102A2000EC01F62E08811981C8010E944F25F81685
:102A300021F06F2DC8010E945725CE01DF91CF9163
:102A40001F910F91FF9008954F925F926F927F9226
:102A50008F929F92AF92BF92CF92DF92EF92FF92AE
:102A60000F931F93CF93DF9300D000D0CDB7DEB785
:102A7000F12CE12C0AE010E023E130E046E550E0E3
:102A80006CE370E08EE697E00E946C1027E030E087
:102A90004AE350E062E470E08EE697E00E946C103A
:102AA00070E060E084E893E00E94990F6CE270E0CF
:102AB0008EE196E00E94990F64E470E084E091E07A
:102AC0000E94990FEFEEEE2EEBE7FE2E03EB10E0E7
:102AD00022E030E050E040E070E060E08EE697E019
:102AE0000E946C1022E030E050E040E06AE370E0C9
:102AF0008EE697E00E946C1002E010E02CE330E0DC
:102B00004EE950E070E060E08EE697E00E946C10C5
:102B10002FEE3BE749E150E063E170E081E190E0B6
:102B20000E943F1080E098EF90938B0780938A0774
:102B3000909389078093880784E490E090938307BB
:102B4000809382078BE390E09093850780938407BE
:102B50006091CD0270E090E080E04AE00E94A11414
:102B6000FDE3CF2ED12CD0928307C092820787E558
:102B700090E09093850780938407809193058F93CD
:102B8000809192058F9383E595E09F938F938E01BB
:102B90000F5F1F4F1F930F930E941128C8010E94BF
:102BA000491380E29DEF90938B0780938A0790935F
:102BB000890780938807D0928307C092820789E9AA
:102BC00090E0909385078093840788E595E00E94C4
:102BD0004913F12CE12C03E110E024E130E044E85A
:102BE00050E06CE370E08EE697E00E946C1028E104
:102BF00036EC4AE050E062E170E08DE890E00E943F
:102C00003F1028E136EC44E050E060E970E08FE4EA
:102C100090E00E94E60FD0928307C092820784E87A
:102C200090E090938507809384078EE580937C00E5
:102C300062E070E080E090E00E947D0D80917A007B
:102C4000806480937A000F900F900F900F900F90F8
:102C50000F9080917A0086FDFCCF20917800C22EE3
:102C6000D12CF12CE12CC0927005D0927105E0922C
:102C70007205F09273058091790090E0982F882773
:102C8000092E000CAA0BBB0B9C01AD012C293D2980
:102C90004E295F2960E070E381E190E00E946525A4
:102CA000209370053093710540937205509373051E
:102CB000CA01B9010E94E42620E030E04AE754E46A
:102CC0000E943A266B017C018FEE9BE790938B0765
:102CD00080938A079093890780938807A7019601BC
:102CE000C701B6010E940628882309F4DBC18CE5E0
:102CF00095E00E944913C701B6010E94AC269B01D2
:102D0000AC012250310941095109AFE0B0E00E9405
:102D100084259B01AC012F5F3F4F4F4F5F4F6FEEFC
:102D2000E62E6BE7F62E08E010E04EE850E06EE38A
:102D300070E08EE697E00E946C1080918E05909175
:102D40008F0502970CF014C18091C002811110C14F
:102D50000E94A81080EE97E090938B0780938A07DB
:102D600090938907809388071092830710928207B7
:102D700088E190E090938507809384078CEF90E042
:102D80000E9486126091CD0270E090E080E04AE0FF
:102D90000E94A11480E595E00E94491388E695E021
:102DA0000E94491380E595E00E94491384EF90E06A
:102DB0000E948612609192057091930590E080E0E8
:102DC0004AE00E94A11480E595E00E94491388E63C
:102DD00095E00E94491380E595E00E94491388EE32
:102DE00090E00E9456138FED90E00E9486128FEFC4
:102DF0009FEF90938B0780938A0790938907809326
:102E00008807109283071092820782E890E09093DF
:102E100085078093840784ED90E00E94561386EC2A
:102E200090E00E94861280E29DEF90938B07809342
:102E30008A07909389078093880788E090E09093B1
:102E400083078093820789E990E0909385078093B8
:102E500084078AEB90E00E94861244244A94542C02
:102E6000612C712C88248394912C43E2A42EB12CE4
:102E70005AE5C52ED12C08EE13E082E00E94190A13
:102E80007C010E94F724A30192010E9465257093A2
:102E90008B0760938A0770938907609388079092E5
:102EA00083078092820710928507109284078CEA2C
:102EB00090E00E9486120E94F724A30192010E94D2
:102EC000652570938B0760938A07709389076093D9
:102ED0008807B0928307A0928207D0928507C0929C
:102EE00084078091CD028150990B809FB001819F12
:102EF000700D909F700D1124809192059091930513
:102F0000680F791F90E080E04AE00E94A11480E5FC
:102F100095E00E94491369E170E080E090E00E9432
:102F20007D0DEF2809F0A9CF24E935E08FE1F90103
:102F30009BE0108291507F969111FBCF81502F5FC3
:102F40003F4F8111F4CF0E94E51468EE73E080E0FA
:102F500090E00E947D0D0E94A81081E08093C00245
:102F600010929305109292058093CD020E94241531
:102F700010928F0510928E0584E090E09093C2022B
:102F80008093C1021092C002E091900584E0E89F16
:102F9000F0011124E554FB4F408151812EE735E0CB
:102FA00080E094E0980FF901DA01A80FB11D6C914F
:102FB00060838F5F34969813F7CF2F5F3F4F903128
:102FC00081F70E94F72427E030E040E050E00E94C3
:102FD0006525C62E60936F05F12CE12C07E110E00A
:102FE00021E130E042E150E06EE370E08EE697E0F0
:102FF0000E946C1092E1892E912C512C94E0C99E74
:1030000060011124F601E554FB4F619071906F014E
:10301000452C88E3A82EB12CF301E40DF11D80812D
:10302000882369F0F601E080F18005E010E025E0FA
:1030300030E0A401B5018EE697E00E946C10439445
:10304000F6E0AF0EB11C80E5A816B10429F794E0B4
:10305000590EE6E08E0E911CF0E15F12D9CF10926E
:1030600091050E947D0E6093EA067093EB068093B3
:10307000EC069093ED060E94A5120F900F900F9012
:103080000F90DF91CF911F910F91FF90EF90DF9004
:10309000CF90BF90AF909F908F907F906F905F90F8
:1030A0004F90089546015701E894B7F82FEF3FEF8E
:1030B0004FE75FE7C501B4010E94062881110DC0EA
:1030C0002FEF3FEF4FE75FE7C501B4010E943526C0
:1030D00018161CF480E695E00CCE2FEF3FEF4FE77B
:1030E0005FE4C701B6010E94942718161CF484E619
:1030F00095E0FFCD2FEF3FEF4FE75FECC701B60143
:103100000E94352687FDF3CF20E030E0A901C701FA
:10311000B6010E94352687FF38C06DE28EE697E043
:103120000E94C010C701B60190582DEC3CEC4CE455
:103130005DE30E94C9252B013C010E94B3264B018F
:103140005C010E94E2269B01AC01C301B2010E9416
:10315000C8252B013C014AE0C501B4010E94A1141D
:103160006EE28EE697E00E94C01020E030E040E280
:1031700051E4C301B2010E9499270E94B32690E056
:1031800080E04AE00E94A114B6CDC701B601CDCFC0
:103190002F923F924F925F926F927F928F929F9267
:1031A000AF92BF92CF92DF92EF92FF920F931F9355
:1031B000CF93DF9340918E0550918F052090C102EF
:1031C0003090C2022A0114E0410E511C2FE1229DD1
:1031D000B001239D700D11249A01AEE7B5E03D01C9
:1031E000641A750ADB01AB56BA4F4D01FB01EC5670
:1031F000FA4F5F01E301C20FD31F6401C20ED31E59
:103200007501E20EF31ED10170E060E01881112318
:1032100079F181309105B1F4AA30B10514F1DF9153
:10322000CF911F910F91FF90EF90DF90CF90BF90C3
:10323000AF909F908F907F906F905F904F903F9056
:103240002F9008958F3F980709F041C01A161B066A
:1032500034F78B010F5111090E0D1F1DF80110815C
:1032600005C08701060F171FF801178D1111D7CF61
:1032700024961196615E7F4F6C37710539F62F5F8A
:103280003F4F4216530609F0B5CF009731F44F5F18
:103290005F4F50938F0540938E05820D931D909341
:1032A000C2028093C102DF91CF911F910F91FF90D5
:1032B000EF90DF90CF90BF90AF909F908F907F90D6
:1032C0006F905F904F903F902F900C94A5122E31ED
:1032D000310514F10E94661480916F05809390056A
:1032E0000E94241542E350E060E070E089E190E044
:1032F000DF91CF911F910F91FF90EF90DF90CF90D2
:10330000BF90AF909F908F907F906F905F904F9005
:103310003F902F900C94A10A8601060F171FF80109
:103320001081112309F4A4CFD5CF1F920F920FB6AD
:103330000F9211248F939F938091E1009091E1006F
:10334000937F9093E10083FF0FC01092E90091E01A
:103350009093EB001092EC0092E39093ED001092AA
:10336000070798E09093F00082FF22C093E09093CB
:10337000E9009091F200992319F09AE39093E80004
:103380009091F806992341F09091F806915090930E
:10339000F806911101C05D9890910607992341F0BC
:1033A00090910607915090930607911101C02898BB
:1033B00084FF18C08091E2008E7E81608093E200DD
:1033C0008091E1008F7E8093E1008091F9068E7EEE
:1033D00080618093F9069F918F910F900FBE0F909F
:1033E0001F90189580FFF7CF8091E2008E7E80615C
:1033F0008093E2008091E1008E7E8093E1008091D5
:10340000F9068E7E8160E5CF1F920F920FB60F9264
:103410001124CF92DF92EF92FF920F931F932F937D
:103420003F934F935F936F937F938F939F93AF934C
:10343000BF93EF93FF93CF93DF93CDB7DEB76C9736
:10344000DEBFCDBF1092E9008091E80083FF25C068
:1034500068E0CE0145960E94910982EF8093E800D2
:103460008D8987FF39C09091E80090FFFCCF982F9D
:10347000907609F034C19E894F89588D2F89F88C38
:10348000911131C0803861F58091F7068093F10089
:103490001092F1008EEF8093E8006C960FB6F894CE
:1034A000DEBF0FBECDBFDF91CF91FF91EF91BF91F6
:1034B000AF919F918F917F916F915F914F913F91CC
:1034C0002F911F910F91FF90EF90DF90CF900F9071
:1034D0000FBE0F901F9018959EEF9093E800C7CFF6
:1034E0001092F100D5CF913059F48111D3CF4130F2
:1034F000510581F68091F7068D7F8093F706CACF3C
:10350000933049F48111C6CF4130510519F68091AD
:10351000F7068260F2CF953041F48091E80080FF99
:10352000FCCF20682093E300B5CF963009F0A9C006
:103530000B8D1C8D22E01092E9001092F50610927E
:10354000F406F2122EC01092F3061092F2060E94B8
:1035500060091F8299E09983FA8291E09E8390EA44
:1035600098879AEF99872091F4063091F506275FA6
:103570003F4F3C832B838D831092E9001092F50618
:103580001092F4061093F3060093F20649E050E01F
:10359000BE016F5F7F4F80E00E943A090E94600980
:1035A00079CF1093F3060093F2060E944408DC01E1
:1035B00012960D911C910115110509F451C1D80104
:1035C000ED91FC910480F581E02DBE016B5E7F4F93
:1035D000C8010995009709F03EC1F80100851185E1
:1035E000EACFF3E0FF120EC08F89882309F440C0B0
:1035F000823061F440E86DE08DEF9EE00E940709A3
:10360000811148CF81E28093EB0047CF813029F4CC
:1036100040E86BE081EF9EE0F1CF833099F70E94A4
:103620004408DC011296ED90FC908E010F5F1F4F55
:103630006801E114F10479F0D701ED91FC91068065
:10364000F781E02DB801C7010995080F111DF70199
:10365000E084F184EECFD8011C92F60101900020A5
:10366000E9F73197BF016C197D0940E0C601C6CF6B
:103670006BED7EE0FB01449150E080E80E943A0946
:1036800009CF973009F4BECF983021F481E08093C0
:10369000F10000CF993009F0FDCE837009F0B2CF70
:1036A000ECE2F5E081E031E096E32191222371F034
:1036B0008093E9003093EB00DF0111972C91209368
:1036C000EC009093ED008F5F873079F78EE7809361
:1036D000EA001092EA008F8980930707DBCE8B8D7A
:1036E0009C8D1092E9001092F5061092F4069093CA
:1036F000F3068093F206898D811192C08E899D898F
:10370000913A49F4813209F07DCF47E050E062ED13
:1037100072E080E0B3CF913209F074CF833269F464
:103720008F89988DB0E0A0E08093CE029093CF0275
:10373000A093D002B093D102ADCE803269F48091D3
:10374000E80082FFFCCF67E082ED92E00E949109E1
:103750008BEF8093E8009ECE823209F09BCE8F895A
:103760008093D902EEEFFFE7859194918B3F9C4DBA
:1037700051F1E0E0F8E08091D2029091D302A09163
:10378000D402B091D502803B9440A105B105F1F47B
:103790008091D90280FD1AC0EE3F8AE0F80789F5D2
:1037A00087E797E791838083809160008093F60696
:1037B00088E19BE00FB6F894A895809360000FBE57
:1037C0009093600067CEEEEFFAE0D5CF80819181D3
:1037D0008737974709F05ECEA89580916000886191
:1037E000809360008091F60680936000EE3F2AE0AF
:1037F000F20789F08091FE0A9091FF0A91838083FD
:1038000049CE808191818737980751F29093FF0AC2
:103810008093FE0AC5CF1092FF0A1092FE0A3ACE9C
:103820000E944408DC0112960D911C9101151105AE
:1038300009F4E8CED801ED91FC910190F081E02DE2
:10384000BE016B5E7F4FC8010995811123CEF8013F
:1038500000851185EBCF181619060CF41BCED2CEBD
:10386000F1E0FF12BECE6FED7EE004CF1F920F920B
:103870000FB60F9211248F939F93AF93BF93EF9343
:10388000FF938091120790911307A0911407B091B4
:103890001507892B8A2B8B2BA1F190910907E091B9
:1038A0000A07F0910B078081892780838091120796
:1038B00090911307A0911407B091150718161906D7
:1038C0001A061B069CF48091120790911307A09191
:1038D0001407B09115070197A109B1098093120748
:1038E00090931307A0931407B0931507FF91EF91DE
:1038F000BF91AF919F918F910F900FBE0F901F902E
:103900001895809171008D7F8093710080910907D7
:10391000E0910A07F0910B079081809589238083BD
:10392000E5CF1F920F920FB60F9211242F933F9362
:103930008F939F93AF93BF93809175059091760578
:10394000A0917705B09178053091740523E0230F9D
:103950002D3758F50196A11DB11D20937405809354
:10396000750590937605A0937705B09378058091BF
:10397000790590917A05A0917B05B0917C0501961F
:10398000A11DB11D8093790590937A05A0937B05C5
:10399000B0937C05BF91AF919F918F913F912F91F3
:1039A0000F900FBE0F901F90189526E8230F0296D8
:1039B000A11DB11DD2CF1F920F920FB60F921124ED
:1039C0002F933F934F935F936F937F938F939F9327
:1039D000AF93BF93EF93FF93E091CB02F091CC02B2
:1039E0000995FF91EF91BF91AF919F918F917F9139
:1039F0006F915F914F913F912F910F900FBE0F905C
:103A00001F9018951F920F920FB60F9211242F93AB
:103A10003F934F935F936F937F938F939F93AF9356
:103A2000BF93EF93FF93E091C902F091CA02099509
:103A3000FF91EF91BF91AF919F918F917F916F9186
:103A40005F914F913F912F910F900FBE0F901F905C
:103A500018951F920F920FB60F9211242F933F9338
:103A60004F935F936F937F938F939F93AF93BF9386
:103A7000EF93FF93E091C702F091C8020995FF917F
:103A8000EF91BF91AF919F918F917F916F915F91D6
:103A90004F913F912F910F900FBE0F901F9018954F
:103AA0001F920F920FB60F9211242F933F934F93B3
:103AB0005F936F937F938F939F93AF93BF93EF9396
:103AC000FF93E091C502F091C6020995FF91EF9135
:103AD000BF91AF919F918F917F916F915F914F9126
:103AE0003F912F910F900FBE0F901F9018951F922E
:103AF0000F920FB60F9211242F933F934F935F9322
:103B00006F937F938F939F93AF93BF93EF93FF93A5
:103B1000E091C302F091C4020995FF91EF91BF912A
:103B2000AF919F918F917F916F915F914F913F9155
:103B30002F910F900FBE0F901F9018951F920F920C
:103B40000FB60F9211248F930FB6F894A895809119
:103B50006000886180936000109260000FBE8F91BA
:103B60000F900FBE0F901F9018950F931F93CF9338
:103B7000DF93EEE1F7E01382128288EE93E0A0E09B
:103B8000B0E084839583A683B78386E395E0918331
:103B900080830FEF1FEF15870487CEE6D7E01B82E7
:103BA0001A8288E495E0998388838AE08A8784E191
:103BB0008B8785E18C871F861D8660E00E94420A04
:103BC00061E08C850E94700A8D9A61E08B850E946D
:103BD000700A2E9A61E08A850E94700A80E590E062
:103BE000998B888B80EA90E09B8B8A8B1DA21D8A23
:103BF0001C8A1F8A1E8A81E08AA38BA31B8F0A8FCF
:103C00001D8E1C8E198E188E8EA31CA28FEF88A37A
:103C100089A382E090E09F8F8E8FDF91CF911F91DB
:103C20000F910895CF93DF93CDB7DEB76C970FB6A2
:103C3000F894DEBF0FBECDBF789484B5826084BD9A
:103C400084B5816084BD85B5826085BD85B58160A0
:103C500085BD80916E00816080936E00109281001E
:103C600080918100826080938100809181008160D9
:103C7000809381008091800081608093800080919A
:103C80009100826080939100809191008160809387
:103C90009100809190008160809390008091C1009C
:103CA00084608093C1008091C10082608093C100D4
:103CB0008091C10081608093C1008091C3008160C8
:103CC0008093C3008091C00082608093C000809187
:103CD000C20081608093C20080917A0084608093EA
:103CE0007A0080917A00826080937A0080917A00D5
:103CF000816080937A0080917A00806880937A0056
:103D0000109207071092F7061092F9068091D700DB
:103D100081608093D70080EA8093D80089B5806164
:103D200089BD89B5826089BD09B400FEFDCF61E01F
:103D300070E080E090E00E947D0D8091D8008F7C43
:103D400080618093D8008091E000807F8093E000C4
:103D50008091E1008E7E8093E1008DE08093E2000F
:103D6000559A209A5D9828981FB7F89480917D0500
:103D7000811127C0E9E4FFE08491ECE1FFE0949138
:103D8000E82FF0E0EE0FFF1FEA53F24FA591B49138
:103D9000EC91E92321F461E081E10E94420A61E0B3
:103DA00081E10E94700A8CB580618CBD8CB5806405
:103DB0008CBD61E08FE00E94700A61E080E10E94AA
:103DC000700A80917D058F5F80937D051FBF8CB544
:103DD000809377078CB58C7F8CBD8DB581608DBD50
:103DE0008CB58F7D8CBD8CB5837F8CBD8CB580935D
:103DF000760780917A071816FCF461E00E94420A67
:103E000065E070E080E090E00E947D0D60E08091D0
:103E10007A070E94420A64E170E080E090E00E942C
:103E20007D0D61E080917A070E94420A66E970E0A8
:103E300080E090E00E947D0D83E08093720789E12D
:103E40009EE00E94B00D809172078111F7C48CE052
:103E50009EE00E94B00D82E08093730781E0809322
:103E6000740784ED9DE00E94B00D8DB58FEF8093B7
:103E70008E0780938F0702E00093930786E30E94EA
:103E8000FD0710919307113009F414C508F4F4C428
:103E9000123009F42BC5133009F434C581E20E94B5
:103EA000FD0781E20E94FD07E4E5FEE0E4919091C8
:103EB0007B008E2F880F880F80729F7D892B8093C7
:103EC0007B00E770E064E0937C0080917A0080647E
:103ED00080937A0080917A0086FDFCCF0091780073
:103EE000109179000E947D0E98018901330F220BF9
:103EF000330B600F711F821F931F611571058105C0
:103F0000910511F00E9446250E94F72427E030E039
:103F100040E050E00E9465256093900562E082E0F9
:103F20000E94700A62E083E00E94700A62E084E00E
:103F30000E94700A62E085E00E94700A62E086E0FA
:103F40000E94700A61E087E00E94700A61E088E0E8
:103F50000E94700A6AE070E080E090E00E947D0DAF
:103F600061E088E00E94420A0E94A81080E29DEF72
:103F700090938B0780938A07909389078093880793
:103F800088E090E0909383078093820789E990E02E
:103F9000909385078093840786E89EE00E948612AE
:103FA0008FEF9FEF90938B0780938A0790938907F9
:103FB00080938807109283071092820782E890E02E
:103FC00090938507809384078CE79EE00E945613A8
:103FD0008EE69EE00E948612512C86E00E94190A0D
:103FE0009C8B8B8B0E94F72427E030E040E050E070
:103FF0000E946525162F0E94F7242BE030E040E058
:1040000050E00E946525062F000F060F000F0E944A
:10401000F7246B017C010E94F72423E030E040E0AC
:1040200050E00E946525462EC701B60120E130E030
:1040300040E050E00E946525C62E660F6C0D660FAD
:10404000665FC62ED12C6EE7662E65E0762E312C8B
:10405000602F70E07E8B6D8B84E0189FB00111247F
:10406000DB01AD50BB4FB88FAF8BFB01E15FFA4F67
:10407000FA8FE98FAB0145545B4F5A8B498B4E5FEA
:104080005F4F5C8F4B8F8D889E8855E0851A910815
:104090005301212CE22DE30DA989BA89442051F066
:1040A000F1E0A98DBA8D4F1629F0F2E04F120AC047
:1040B000AF89B88D8D919C91E80FF92FF11D80810A
:1040C000F5018083D5018C91882371F0AB8DBC8D77
:1040D000ED90FC9005E010E025E030E0A601B40191
:1040E0008EE697E00E946C102394B4E0AB0EB11CF6
:1040F000E6E08E0E911CF4E02F12CCCF3F0E26E0AE
:10410000C20ED11C4FEF641A740A50E13512BBCFB6
:10411000C52CD12CCC0CDD1CF601EB52FC4FA08041
:10412000B180A114B10411F051100EC0F12CE12C9A
:1041300009E710E020E530E048E050E070E060E0A2
:104140008EE697E00E946C100E94F7242FEF3FEF5D
:1041500040E050E00E94652570938B0760938A07CA
:10416000709389076093880761E070E0709383071C
:1041700060938207109285071092840780E69EE084
:104180000E948612F601E151FD4FC080D1800D2CB6
:10419000000CEE08FF08B701A601C5010E94A10AA4
:1041A000C701B6010E947D0D8091DA02873089F443
:1041B000E7E5FFE08491FFEFF093DA02813009F444
:1041C000B5C308F4B0C3833009F4B6C3843009F42E
:1041D000B9C360E087E00E94420A539422E72515A4
:1041E00038F464EF71E080E090E00E947D0D512C86
:1041F0004B895C89452B09F0F0CE0E94A81068EC31
:1042000070E080E090E00E947D0D44E9E42E45E0FE
:10421000F42E10E000E058014BE0A40EB11C670141
:10422000C8010E944F25D6018C93893010F00E945E
:10423000E5140F5F1F4FBFE1CB0ED11CA016B106D6
:1042400079F7EFEFEE1AFE0AF5E5AF16F1E0BF06DB
:1042500011F785E591E00E944F258093CD028A30C9
:1042600010F00E94E51486E591E00E944F258093AE
:10427000920587E591E00E944F25809393058091F8
:10428000920590919305893E934010F00E94E514A9
:104290000E9424153FE1232E84E00E94190A892BF5
:1042A00009F50E947D0E0091EE061091EF06209117
:1042B000F0063091F106601B710B820B930B683C8A
:1042C00071058105910570F00E947D0E6093EE06E8
:1042D0007093EF068093F0069093F10681E090E0F2
:1042E0000E94C81883E00E94190A892B09F50E94D0
:1042F0007D0E0091EE061091EF062091F0063091B0
:10430000F106601B710B820B930B683C71058105F4
:10431000910570F00E947D0E6093EE067093EF069B
:104320008093F0069093F1068FEF9FEF0E94C818DC
:1043300085E00E94190A892B09F0BBC00E947D0EFE
:104340000091EE061091EF062091F0063091F106F3
:10435000601B710B820B930B683C71058105910505
:1043600008F4A7C00E947D0E6093EE067093EF06DE
:104370008093F0069093F10680919105C09090058E
:104380000091C1021091C202209E2001219E500C7A
:10439000112420918E0530918F05420E531E30E07E
:1043A00020E090E0A2014C565A4F2A0164E0C69EDC
:1043B000A0011124DA01A554BB4F3D01FA01E952D5
:1043C000FB4F4F01BA016D507B4F5B01DA01A15FDA
:1043D000BA4F6D01FE013196A9014E0F5F1F5A8B36
:1043E000498B7201E20EF31E50E040E0D6018823B3
:1043F00049F0D501813031F0D401823019F0833099
:1044000051F4D3016D917C91690F711DDB016C91A9
:10441000A989BA896C939F5FA989BA896C9166232F
:1044200091F0BA01600F711F6B30710508F041C047
:10443000249EB001259E700D11246E0D7F1DDB01A1
:104440006C91611136C04F5F5F4F69897A896C5FEB
:104450007F4F7A8B698B4430510541F62F5F3F4F78
:104460002430310509F0B6CF8F5F843008F070C278
:1044700080939105CF010496AEE7B5E021912D938D
:10448000238113962C931397278117962C931797B4
:1044900023851B962C931B978E179F0779F743E074
:1044A00050E060E070E088EE93E00E94A10A0E9474
:1044B000A51286E00E94190A892B09F50E947D0E3B
:1044C0000091EA061091EB062091EC063091ED0682
:1044D000601B710B820B930B6A307105810591058E
:1044E00070F090E080E00E94C8180E947D0E6093FA
:1044F000EA067093EB068093EC069093ED0682E05B
:104500000E94190A892B09F05AC10E947D0E009160
:10451000EE061091EF062091F0063091F106601B37
:10452000710B820B930B683C71058105910508F4B2
:1045300046C1F12CE12C08E110E02CE230E045E32B
:1045400050E068E070E08EE697E00E946C100E94F8
:10455000F7242CED3FEF40E050E00E9465254B0131
:104560000E947D0E6C507E4F8F4F9F4F6093EE06E2
:104570007093EF068093F0069093F1060E947D0EF3
:104580002B013C0124E9E22E25E0F22ED12CC12C96
:104590008601055F1F4F5701DA82C982D5016C91F0
:1045A000CE0101960E940B15BFEFCB1ADB0AEFE19B
:1045B000AE0EB11C0C151D0579F7FFEFEF1AFF0ABF
:1045C000053521E0120721F71A8309836091CD0296
:1045D000CE0101960E940B1546E551E05A834983AE
:1045E00060919205CE0101960E940B1567E571E07E
:1045F0007A83698360919305CE0101960E940B1521
:104600006DE471E080E090E00E947D0D89E0C82EAD
:10461000D12C9AE0A92EB12C82E00E94190A892B94
:10462000A9F40E947D0E0091EE061091EF062091F4
:10463000F0063091F106601B710B820B930B332453
:104640003394683C71058105910508F4312CD7FC41
:104650001FC090928B0780928A0790928907809260
:104660008807B0928307A09282078DE390E0909331
:1046700085078093840782E99EE00E9486129FEF5F
:10468000891A990AAFEF8A169A0611F4912C812C97
:104690000E947D0E6419750986099709683E73406A
:1046A0008105910508F44AC0D7FC48C0F12CE12CE3
:1046B00009E010E027E030E04CE350E06CE270E00D
:1046C0008EE697E00E946C10B6010D2C000C880B52
:1046D000990B4AE00E94A114E1E0CE1AD1080E9491
:1046E0007D0E2B013C01FFEFCF16DF0639F564EF9D
:1046F00071E080E090E00E947D0D60E088E00E9423
:10470000420A4EE959E05093C4024093C30280919B
:1047100069008C7F80936900E89A30E020E050E0E7
:1047200040E06AE070E089EE96E00E94890EE89829
:104730006FE979E07093C4026093C30262E370E0B2
:1047400080E090E00E947D0D332009F465CF42E3C4
:1047500050E060E070E08CE291E00E94A10A61E02C
:1047600088E00E94420A64EF71E080E090E00E94DD
:104770007D0DF12CE12C0FE010E02AE230E04AE35D
:1047800050E069E070E08EE697E00E946C100E94B5
:104790007D0E68537F4F8F4F9F4F6093EE0670934F
:1047A000EF068093F0069093F1060E947D0E6093D1
:1047B000EA067093EB068093EC069093ED060E9458
:1047C0007D0E0091EA061091EB062091EC063091E7
:1047D000ED06AB01BC01401B510B620B730B20912A
:1047E000CD022150330B1CE91203C001139F900D21
:1047F000112482529C4F092E000CAA0BBB0B4817A8
:1048000059076A077B0770F090E080E00E94C818A3
:104810000E947D0E6093EA067093EB068093EC068F
:104820009093ED0660E087E00E94420A80E090E00D
:10483000892B09F431CD0E9400002CCD833059F42E
:104840008CE09EE00E94B00D86E30E94FD0780ECA4
:104850000E94030800CB813029F48FEF9DE00E9475
:10486000B00DFFCA823009F0FCCA86E30E94FD0742
:1048700080EC0E940308F5CA80917207833021F012
:1048800088EC0E94030809C088EC0E9403088AE1B2
:104890008093730781E08093740780E590E09093A4
:1048A0007F0780937E0780EA90E090938107809352
:1048B0008007F4CA80917207823061F480EA0E9416
:1048C000030880EA90E090937F0780937E0780E55D
:1048D00090E0EBCF833041F480EA0E94030810930C
:1048E000730700937407EDCF88EAE9CF80917207D0
:1048F000823011F480E0C5CF833011F488E0C5CF59
:1049000088E0BFCF80917207823011F480E6D7CF64
:10491000833039F480E60E94030881E080937307B6
:10492000E0CF88E6CCCF10926E0053CC80916F0020
:104930008D7F80936F004DCC809171008D7F80932F
:10494000710047CC809172008F7B8093720041CCC4
:10495000109291058FCD8F929F92AF92BF92CF927E
:10496000DF92EF92FF92CF93DF93EC016881798120
:104970008A819B81611571058105910521F464E2AD
:1049800079ED8BE597E02DE133EF41E050E00E94B7
:10499000652549015A019B01AC01A7EAB1E40E94D7
:1049A00084256B017C01ACEEB4EFA50194010E945B
:1049B0009225C60ED71EE81EF91EF7FE06C081E03E
:1049C000C81AD108E10880E8F80AC882D982EA82C8
:1049D000FB82C701B6019F77DF91CF91FF90EF90E7
:1049E000DF90CF90BF90AF909F908F9008958F925F
:1049F0009F92AF92BF92CF92DF92EF92FF9260911F
:104A0000DB027091DC028091DD029091DE02611583
:104A100071058105910521F464E279ED8BE597E05C
:104A20002DE133EF41E050E00E94652549015A0134
:104A30009B01AC01A7EAB1E40E9484256B017C01D3
:104A4000ACEEB4EFA50194010E949225C60ED71ECC
:104A5000E81EF91EF7FE06C081E0C81AD108E10879
:104A600080E8F80AC092DB02D092DC02E092DD021C
:104A7000F092DE02C701B6019F77FF90EF90DF90C2
:104A8000CF90BF90AF909F908F9008956093DB027E
:104A90007093DC028093DD029093DE020895F99911
:104AA000FECF92BD81BDF89A992780B50895262F33
:104AB000F999FECF1FBA92BD81BD20BD0FB6F89403
:104AC000FA9AF99A0FBE01960895052E97FB1EF4E7
:104AD00000940E947C2557FD07D00E94972507FC73
:104AE00003D04EF40C947C2550954095309521953B
:104AF0003F4F4F4F5F4F089590958095709561950A
:104B00007F4F8F4F9F4F08950E94B925A59F900D0D
:104B1000B49F900DA49F800D911D11240895B7FF9F
:104B20000C9484250E948425821B930B0895A1E296
:104B30001A2EAA1BBB1BFD010DC0AA1FBB1FEE1F17
:104B4000FF1FA217B307E407F50720F0A21BB30B62
:104B5000E40BF50B661F771F881F991F1A9469F7DE
:104B600060957095809590959B01AC01BD01CF013A
:104B70000895A29FB001B39FC001A39F700D811D36
:104B80001124911DB29F700D811D1124911D089556
:104B90005058BB27AA270E94E0250C945A270E9450
:104BA0004C2738F00E94532720F039F49F3F19F426
:104BB00026F40C9449270EF4E095E7FB0C94432768
:104BC000E92F0E946B2758F3BA176207730784070F
:104BD000950720F079F4A6F50C948D270EF4E09556
:104BE0000B2EBA2FA02D0B01B90190010C01CA01A7
:104BF000A0011124FF27591B99F0593F50F4503E52
:104C000068F11A16F040A22F232F342F4427585F43
:104C1000F3CF469537952795A795F0405395C9F75B
:104C20007EF41F16BA0B620B730B840BBAF0915013
:104C3000A1F0FF0FBB1F661F771F881FC2F70EC0B2
:104C4000BA0F621F731F841F48F487957795679585
:104C5000B795F7959E3F08F0B0CF9395880F08F071
:104C60009927EE0F9795879508950E941F2708F4BE
:104C700081E008950E944E260C945A270E945327E3
:104C800058F00E944C2740F029F45F3F29F00C9423
:104C9000432751110C948E270C9449270E946B27AF
:104CA00068F39923B1F3552391F3951B550BBB275B
:104CB000AA2762177307840738F09F5F5F4F220FA0
:104CC000331F441FAA1FA9F335D00E2E3AF0E0E897
:104CD00032D091505040E695001CCAF72BD0FE2FE1
:104CE00029D0660F771F881FBB1F26173707480775
:104CF000AB07B0E809F0BB0B802DBF01FF2793582D
:104D00005F4F3AF09E3F510578F00C9443270C9486
:104D10008E275F3FE4F3983ED4F3869577956795A9
:104D2000B795F7959F5FC9F7880F911D9695879561
:104D300097F90895E1E0660F771F881FBB1F621780
:104D400073078407BA0720F0621B730B840BBA0B3E
:104D5000EE1F88F7E09508950E94B3266894B1117C
:104D60000C948E2708950E94732788F09F5798F01F
:104D7000B92F9927B751B0F0E1F0660F771F881F60
:104D8000991F1AF0BA95C9F714C0B13091F00E947A
:104D90008D27B1E008950C948D27672F782F8827F1
:104DA000B85F39F0B93FCCF3869577956795B395A1
:104DB000D9F73EF490958095709561957F4F8F4F10
:104DC0009F4F0895E89409C097FB3EF49095809515
:104DD000709561957F4F8F4F9F4F9923A9F0F92FC1
:104DE00096E9BB279395F695879577956795B7953F
:104DF000F111F8CFFAF4BB0F11F460FF1BC06F5F25
:104E00007F4F8F4F9F4F16C0882311F096E911C036
:104E1000772321F09EE8872F762F05C0662371F057
:104E200096E8862F70E060E02AF09A95660F771F6B
:104E3000881FDAF7880F9695879597F90895990F47
:104E40000008550FAA0BE0E8FEEF16161706E80754
:104E5000F907C0F012161306E407F50798F0621B75
:104E6000730B840B950B39F40A2661F0232B242B4A
:104E7000252B21F408950A2609F4A140A6958FEF69
:104E8000811D811D089597F99F6780E870E060E0BB
:104E900008959FEF80EC089500240A9416161706D3
:104EA00018060906089500240A941216130614061B
:104EB00005060895092E0394000C11F4882352F07E
:104EC000BB0F40F4BF2B11F460FF04C06F5F7F4F36
:104ED0008F4F9F4F089557FD9058440F551F59F01D
:104EE0005F3F71F04795880F97FB991F61F09F3FD7
:104EF00079F087950895121613061406551FF2CF00
:104F00004695F1DF08C0161617061806991FF1CF4F
:104F100086957105610508940895E894BB27662776
:104F20007727CB0197F908950E941F2708F48FEF88
:104F300008950E94AC270C945A270E944C2738F001
:104F40000E94532720F0952311F00C9443270C94D2
:104F5000492711240C948E270E946B2770F3959F8C
:104F6000C1F3950F50E0551F629FF001729FBB2760
:104F7000F00DB11D639FAA27F00DB11DAA1F649FFC
:104F80006627B00DA11D661F829F2227B00DA11DAF
:104F9000621F739FB00DA11D621F839FA00D611D35
:104FA000221F749F3327A00D611D231F849F600D56
:104FB000211D822F762F6A2F11249F5750409AF07F
:104FC000F1F088234AF0EE0FFF1FBB1F661F771F0B
:104FD000881F91505040A9F79E3F510580F00C94D6
:104FE00043270C948E275F3FE4F3983ED4F38695D5
:104FF00077956795B795F795E7959F5FC1F7FE2B76
:10500000880F911D9695879597F908950E941F27FF
:10501000880B990B0895EE0FFF1F0590F491E02D7A
:105020000994AEE0B0E0E7E1F8E20C94C02A0D8903
:105030001E8986E08C831A8309838FEF9FE79E8306
:105040008D83AE01475E5F4F6F89788DCE010196EB
:105050000E9434282F813885020F131FF801108217
:105060002E96E4E00C94DC2AABE0B0E0EAE3F8E250
:105070000C94B22A7C013B018A01FC011782168242
:10508000838181FFC8C1CE0101965C01F701938144
:10509000F30193FD859193FF81913F01882309F4EA
:1050A00053C1853239F493FD859193FF81913F017E
:1050B000853229F4B70190E00E94242AE7CF912C91
:1050C000212C312CFFE1F31538F08B3211F190F4E3
:1050D000803209F1833229F137FC3CC020ED280FE2
:1050E0002A3050F536FE20C08AE0989E200D11240B
:1050F000922E06C08D3291F0803371F7689430F8AB
:10510000F30193FD859193FF81913F018111DACFE6
:1051100021C0689431F8689432F8F2CF689433F87B
:10512000EFCF689434F8ECCFEAE02E9E200D1124E6
:10513000222E689435F8E4CF8E3229F436FC04C16F
:10514000689436F8DDCF8C3619F4689437F8D8CFE8
:105150008836B1F2982F9F7D95549330E0F08336D6
:10516000A1F18337C1F1833509F063C02801F2E072
:105170004F0E511CF801C080D180692D70E036FCC3
:1051800002C06FEF7FEFC6010E940E2A4C016894A7
:1051900037F882010AC00C5F1F4FFFE3F9838824B0
:1051A0008394912C6501E89437F833FE2DC0522C7E
:1051B0008114910471F5552009F468CFB70180E29C
:1051C00090E00E94242A5A94F6CFF80180818983C6
:1051D0000E5F1F4FE4CF2801F2E04F0E511CF80183
:1051E000C080D180692D70E036FC02C06FEF7FEF88
:1051F000C6010E94192A4C018201D5CFB70180E275
:1052000090E00E94242A2A942814190409F0B0F787
:10521000CECFF60137FC859137FE81916F01B70142
:1052200090E00E94242A51105A94F1E08F1A9108BC
:10523000BFCF843619F0893609F077C0F80137FE00
:105240006BC060817181828193810C5F1F4FF32D50
:10525000FF763F2E97FF09C09095809570956195D8
:105260007F4F8F4F9F4F689437F82AE030E0A501B9
:105270000E94542AC82ECA188C2C432C36FE0CC00F
:10528000E89440F8C91440F434FE05C032FC03C071
:10529000F32DFE7E4F2E892C44FE95C0FE01EC0DB1
:1052A000F11D8081803309F087C0242D297E422E94
:1052B000842D8870582E43FC95C040FE8FC09C2CD6
:1052C000821418F42C0C922C981844FE91C0B7014B
:1052D00080E390E00E94242A42FE09C088E790E023
:1052E00041FE02C088E590E0B7010E94242AC9145B
:1052F00008F48AC0CA94D12C9FEFC91AD90ACA0CE3
:10530000DB1CF60182916F01B70190E00E94242A14
:10531000AC14BD04B1F74FCF60817181072E000C32
:10532000880B990B0E5F1F4F92CFD32CE894D4F8C3
:105330002AE030E0853739F1232D297FD22E8F36B0
:1053400001F148F48835A9F0F701868197812B9601
:10535000E2E10C94CE2A803749F08837A9F7D4FED1
:1053600002C06894D2F820E130E00DC06894D4F80F
:10537000F6CF34FE03C0822F8660D82E20E132E0C3
:1053800002C028E030E0F801D7FE0FC060817181D3
:10539000828193810C5F1F4FA5010E94542AC82E61
:1053A000CA183D2CE89437F867CF6081718190E08E
:1053B00080E00E5F1F4FF0CF42FC02C0839478CF95
:1053C0008394839475CF842D867809F471CFF6CFBA
:1053D000B70180E290E00E94242A83948214C0F3F3
:1053E000512C73CF522C5818821408F46ECFF8CF7A
:1053F000842D867809F47BCF8BE241FE80E247FC66
:105400008DE2B70190E071CFB70180E390E00E9498
:10541000242A9A946CCF8FEF9FEF99CFFC010590CF
:10542000615070400110D8F7809590958E0F9F1FA6
:105430000895FC016150704001900110D8F78095EB
:1054400090958E0F9F1F08950F931F93CF93DF9317
:10545000182F092FEB018B8181FD09C01FEF0FEF82
:10546000812F902FDF91CF911F910F91089582FF8F
:1054700014C02E813F818C819D81281739073CF40F
:10548000E881F981CF0101969983888310838E8109
:105490009F8101969F838E83E3CFE885F985812FD5
:1054A0000995892BA1F3DACFFA01AA27283051F107
:1054B000203181F1E8946F936E7F6E5F7F4F8F4F45
:1054C0009F4FAF4FB1E03ED0B4E03CD0670F781FA4
:1054D000891F9A1FA11D680F791F8A1F911DA11D89
:1054E0006A0F711D811D911DA11D20D009F46894C2
:1054F0003F912AE0269F11243019305D3193DEF66A
:10550000CF010895462F4770405D4193B3E00FD01F
:10551000C9F7F6CF462F4F70405D4A3318F0495D0A
:1055200031FD4052419302D0A9F7EACFB4E0A695ED
:105530009795879577956795BA95C9F7009761050F
:10554000710508959B01AC010A2E06945795479565
:1055500037952795BA95C9F7620F731F841F951F5A
:10556000A01D08952F923F924F925F926F927F926B
:105570008F929F92AF92BF92CF92DF92EF92FF9263
:105580000F931F93CF93DF93CDB7DEB7CA1BDB0B0F
:105590000FB6F894DEBF0FBECDBF09942A883988B4
:1055A00048885F846E847D848C849B84AA84B984BB
:1055B000C884DF80EE80FD800C811B81AA81B981C7
:1055C000CE0FD11D0FB6F894DEBF0FBECDBFED01DB
:0655D0000895F894FFCFDE
:1055D60000000000000101000000010100000000C1
:1055E60000000000000101010000010000000000B1
:1055F60000000000000001010001010000000000A1
:105606000000000000010100000101000000000090
:105616000000000000010101000100000000000080
:105626000000000000010101000000010000000070
:105636000000010000000100000001000000010060
:105646000000000100000101000001000000000050
:105656000000010000010100000001000000000040
:105666000000010000000101000000010000000030
:105676000000000000010100000101000000000020
:105686000001010000000100000001000000000010
:105696000000010000000100000101000000000000
:1056A60000000000010101010000000000000000F0
:1056B60000000000000101000000010100000000E0
:1056C60000000100000101010000000000000000D0
:1056D60000000000000001010001010000000000C0
:1056E60000000000000101000001010000000000B0
:1056F60000000001000101010000000000000000A0
:10570600000100000001010100000000000000008F
:10571600000001000000010000000100000001007F
:10572600000000010000010100000100000000006F
:10573600000001000000010100000100000000005F
:10574600000001000000010100000001000000004F
:10575600000000000001010000010100000000003F
:10576600000001000000010000000101000000002F
:10577600000001010000010000000100000000001F
:10578600000000000101010100000000000000000F
:105796000104009F099F099F099F099F0901FFFFB7
:1057A600FFFF00E1000000000000FF010000000014
:1057B60000FF071F005C91A0FEE0071FF800F87DC0
:1057C60000F401FA00FA00FA007D007D00FA00FA02
:1057D60000F401FA00FA00F401FA00FA00EE02FA07
:1057E60000F401F401F401F401F401FA00F401FA01
:1057F60000F401FA00FA00EE02FA00F401FA00FAE7
:1058060000F401FA00FA00F401F401F401F401F4E1
:1058160001F401F401FA00FA00FA007D007D00FAB5
:1058260000FA00F401FA00FA00F401FA00FA00EEB8
:1058360002FA00F401F401F401F401F401FA00F4AF
:1058460001FA00F401FA00FA00EE02FA00F401FA95
:1058560000FA00F401FA00FA00F401F401F401F48C
:1058660001F401F401E803E803E803E803E803E8C8
:1058760003E803E803E803E803E803E803F401F4B4
:1058860001E803D007E803E803E803E803E803E8D0
:1058960003E803E803E803E803E803E803F401F494
:1058A60001E803D00792022805DE032004A4042899
:1058B60005A4042004DE037003700320042805A455
:1058C600042004DE032004A40428052004700370C9
:1058D600030000A4048005E00630068005280520A4
:1058E600042805A4042004DE03DE032004A40428FF
:1058F6000520047003700300002805DE032004A4BD
:10590600042805A4042004DE037003700320042881
:1059160005A4042004DE032004A404280520047042
:105926000370030000A4048005E006300680052805
:105936000520042805A4042004DE03DE032004A4B5
:10594600042805200470037003000094021002521C
:1059560002EF011002B801A301EF019402100252F6
:1059660002EF0110029402700346039402100252E1
:1059760002EF011002B801A301EF019402100252D6
:1059860002EF0110029402700346036001FF075004
:10599600011F0040015C913001A0FE2001E00710CC
:1059A600011FF8000100F8D001FF07C0011F00B079
:1059B600015C91A001A0FE9001E00780011FF87034
:1059C6000100F84002FF0730021F0020025C911020
:1059D60002A0FE0002E007F0011FF8E00100F8B0A7
:1059E60002FF07A0021F0090025C918002A0FE70D9
:1059F60002E00760021FF8500200F800C180810033
:105A06000000000000005808F80D79086E08BF086D
:105A16007D089B0800000000C010A009A212A11278
:105A26000D0A002530336400763A32006E616E004E
:0A5A3600696E66006F7666002000BE
:00000001FF
